:020000040800F2
:1000000028050020A9010008611A00084B17000804
:100010005D1A0008B5020008B125000800000000C4
:100020000000000000000000000000009F1A00080F
:10003000B9020008000000009D1A0008A11A00087B
:10004000C3010008C3010008C3010008C301000880
:10005000C3010008C3010008C3010008C301000870
:10006000C3010008C3010008C3010008C301000860
:10007000C3010008C3010008C3010008C301000850
:10008000C3010008C3010008C3010008000000000C
:10009000000000000000000000000000C301000894
:1000A000C3010008C3010008C3010008C301000820
:1000B0008D1C0008E91D0008C3010008C3010008E9
:1000C000C3010008C3010008C3010008C301000800
:1000D000C3010008C3010008C301000800000000BC
:1000E000C3010008C3010008C301000800000000AC
:1000F000000000000000000000000000C301000834
:1001000000000000C3010008C3010008C30100088B
:1001100000000000000000000000000000000000DF
:10012000C3010008C3010008C3010008C30100089F
:10013000C3010008000000000000000000000000F3
:10014000000000000000000000000000C3010008E3
:10015000C3010008C3010008C3010008C30100086F
:10016000C3010008C30100080000000000000000F7
:10017000000000000000000000000000000000007F
:1001800000000000C30100080000000000000000A3
:10019000C3010008DFF80CD000F07AF800480047EF
:1001A0002126000828050020064880470648004709
:1001B000FEE7FEE7FEE7FEE7FEE7FEE7FEE7FEE717
:1001C000FEE7FEE7811B0008950100082DE9F05FBE
:1001D0000546002092469B468846064681464024B6
:1001E0001BE0284641464746224600F041F8534668
:1001F0005A46C01A914110D311461846224600F0C3
:1002000028F82D1A67EB01084F46224601200021ED
:1002100000F01FF817EB00094E41201EA4F1010465
:10022000DFDC484631462A464346BDE8F09FD2B25D
:1002300001E000F8012B491EFBD270470022F6E7CF
:1002400010B513460A4604461946FFF7F0FF20464C
:1002500010BD202A04DB203A00FA02F1002070478A
:100260009140C2F1200320FA03F3194390407047F4
:10027000202A04DB203A21FA02F00021704721FAFB
:1002800002F3D040C2F12002914008431946704762
:10029000064C074D06E0E06840F0010394E80700D3
:1002A00098471034AC42F6D3FFF778FFCC2600080D
:1002B000EC26000800BFFEE770477047F8B503461C
:1002C0000A460025002400200021CDE0012606FA80
:1002D00001F5166806EA0504AC4273D15668022E91
:1002E00002D05668122E13D1CF0803F1200656F81B
:1002F00027004E07F70E0F26BE40B0434F07FF0EF4
:100300001669BE403043CF0803F1200646F82700A7
:1003100018684F000326BE40B043167906F0030666
:100320004F00BE40304318605668012E08D0566812
:10033000022E05D05668112E02D05668122E13D107
:1003400098684F000326BE40B0434F00D668BE40B9
:1003500030439860586801268E40B0431679C6F342
:1003600000168E4030435860D8684F000326BE40C8
:10037000B0434F009668BE403043D860566806F0E0
:100380008056B6F1805F6ED100BF00260096384ED1
:10039000366846F48046364F3E603E46366806F480
:1003A0008046009600BF00BF324E8F0856F82700E7
:1003B0008E07370F0F26BE40B0432F4EB34202D1F7
:1003C000002615E04FE02D4EB34201D101260FE08B
:1003D0002B4EB34201D102260AE02A4EB34201D18C
:1003E000032605E0284EB34201D1042600E007268B
:1003F0008F073F0FBE4030431E4E8F0846F8270040
:10040000224E3068A043566806F48036B6F5803F29
:1004100000D120431D4E3060361D3068A043566821
:1004200006F40036B6F5003F00D12043174E361DC6
:100430003060361D3068A043566806F48016B6F565
:10044000801F00D12043114E08363060361D3068C1
:10045000A043566806F40016B6F5001F00D12043ED
:100460000A4E0C363060491C1029FFF42FAFF8BD3E
:1004700044380240083801400000024000040240B5
:1004800000080240000C024000100240003C014005
:10049000024613690B400BB1012000E000207047B9
:1004A00042694A4042617047014800687047000055
:1004B0001C000020034800680349097808440149EA
:1004C000086070471C0000202400002010B50D4873
:1004D000006840F400700B4908600846006840F46A
:1004E000806008600846006840F48070086003205F
:1004F00000F0A0F8002000F007F800F02BF8002032
:1005000010BD0000003C024070B504460E48007863
:100510004FF47A71B1FBF0F00C490968B1FBF0F5CA
:10052000284600F0D7FC08B1012070BD102C07D27E
:1005300000222146501E00F03EF80548046001E00C
:100540000120F2E70020F0E724000020280000202E
:100550002000002008B500BF002000900E48006871
:1005600040F480400C4908600846006800F4804070
:10057000009000BF00BF00BF00200090081F00686F
:1005800040F08050091F08600846006800F0805065
:10059000009000BF00BF08BD4438024000BF00F01B
:1005A0001F02012191404209920002F1E022C2F8AB
:1005B000001100BF70472DE9F05F80460D461646DA
:1005C000002701F04FFA074639462A46334601F024
:1005D0000700C0F1070ABAF1040F02D94FF0040A6C
:1005E00001E0C0F1070AD14600F1040ABAF1070F91
:1005F00002D24FF0000A01E0A0F1030AD4464FF006
:10060000010A0AFA09FAAAF1010A0AEA020A0AFA2E
:100610000CFA4FF0010B0BFA0CFBABF1010B0BEAE0
:10062000030B4AEA0B042146404601F023FABDE8D9
:10063000F09F000000BF00F00702064B19684FF65C
:10064000FF031940044B0B4343EA0221014B19609D
:1006500000BF70470CED00E00000FA05F8B5044655
:1006600000250026207800F0010020B9207800F055
:10067000040004282FD100205F498866FFF714FF8B
:10068000054606E0FFF710FF401B022801D90320B2
:10069000F8BD5A480068C0F3C0600028F2D1606815
:1006A0008101207A41EA00705449843108600120B8
:1006B00051498866FFF7F8FE054606E0FFF7F4FEAD
:1006C000401B022801D90320E2E74C480068C0F330
:1006D000C0600028F2D0207800F0020002287DD10E
:1006E00000BF0020009045484030006840F0805036
:1006F0004249403108600846006800F08050009090
:1007000000BF00BF3E48006840F480703C4908606C
:10071000FFF7CAFE054606E0FFF7C6FE401B0228AB
:1007200001D90320B4E73648006800F4807000283F
:10073000F2D032487030006800F440764EB3A089A1
:1007400000F44070B04224D02C487030006820F48F
:10075000407601202B49086000200860274870304F
:100760000660006800F0010098B1FFF79DFE0546A5
:1007700008E0FFF799FE401B41F28831884201D919
:10078000032085E71D4870300068C0F34000002852
:10079000EFD000BFA08900F44070B0F5407F0CD1CD
:1007A00016480830006820F4F810174AE168114034
:1007B000084312490831086007E010480830006813
:1007C00020F4F8100D49083108600C4870300068BA
:1007D000A189C1F30B010843084900E002E0703130
:1007E000086000BF207800F00800082802D1207CB3
:1007F0000649086000204BE70000474200380240ED
:1008000000700040400E4742FFFCFF0FE0114742DE
:1008100070B504460D460CB9012070BD58480068FB
:1008200000F00F00A84209D255490D700846006833
:1008300000F00F00A84201D00120EEE7207800F080
:10084000020002281DD1207800F00400042805D100
:100850004C48006840F4E0504A490860207800F0B5
:100860000800082805D14748006840F46040454921
:1008700008604448006820F0F000A168084341493E
:100880000860207800F00100A8B36068012807D153
:100890003C4808380068C0F34040B8B90120BCE7C4
:1008A0006068022802D06068032807D135480838FC
:1008B0000068C0F3406048B90120AEE7314808380D
:1008C0000068C0F3400008B90120A6E72D48006881
:1008D00020F00300616808432A490860FFF7E4FD3F
:1008E000064609E0FFF7E0FD801B41F288318842AF
:1008F00002D9032091E707E02248006800F00C00CD
:100900006168B0EB810FEDD11D48006800F00F0069
:10091000A84209D91A490D700846006800F00F0076
:10092000A84201D0012078E7207800F004000428D4
:1009300007D11448006820F4E050E16808431149E9
:100940000860207800F00800082808D10D480068E9
:1009500020F46040216940EAC1000A49086000F0C3
:100960003DF808490968C1F30311074A515CC840C2
:10097000064908600020FFF7C7FD00204DE7000092
:10098000003C024008380240B4260008280000203D
:1009900001480068704700002800002000B5FFF7FC
:1009A000F7FF04490968C1F38221034A515CC8403A
:1009B00000BD000008380240C426000800B5FFF75B
:1009C000E7FF04490968C1F34231034A515CC8405A
:1009D00000BD000008380240C42600082DE9F04799
:1009E000002400250026A1462548006800F00C00E0
:1009F00020B1042805D008283AD105E0DFF884901A
:100A000039E0DFF8849036E01D48001F006800F0F0
:100A10003F041B48001F006800F4800078B11A48AA
:100A20001749091F0968C1F38811A0FB017001462D
:100A3000224600233846FFF7C9FB05460EE0114861
:100A40000F49091F0968C1F38811A0FB0170014615
:100A5000224600233846FFF7B9FB05460848001F29
:100A60000068C0F30140401C4600B5FBF6F902E007
:100A7000DFF8109000BF00BF4846BDE8F0870000D7
:100A8000083802400024F40000366E01F8B5044630
:100A90000CB90120F8BD207800F00100002874D0C6
:100AA000F948006800F00C0004280DD0F6480068F2
:100AB00000F00C00082813D1F348001F006800F470
:100AC0008000B0F5800F0BD1EF4808380068C0F304
:100AD0004040002859D06068002856D10120D9E74D
:100AE00000BF6068B0F5803F08D1E748083800686B
:100AF00040F48030E449083908601EE06068B0F5D1
:100B0000A02F0DD1E0480838006840F48020DE496D
:100B1000083908600846006840F4803008600CE03E
:100B2000D9480838006820F48030D749083908606F
:100B30000846006820F48020086000BF606890B11B
:100B4000FFF7B2FC054606E0FFF7AEFC401B642849
:100B500001D903209EE7CC4808380068C0F3404024
:100B60000028F1D011E0FFF79FFC054606E0FFF7F3
:100B70009BFC401B642801D903208BE7C24808383E
:100B80000068C0F340400028F1D1207800F0020056
:100B900002285FD1BC48006800F00C0058B1BA4888
:100BA000006800F00C0008281CD1B748001F00683E
:100BB00000F48000B0B9B44808380068C0F34000C1
:100BC00020B1E068012801D0012063E7AE48083871
:100BD000006820F0F800216940EAC100AA490839FC
:100BE000086037E0E06800B30120A8490860FFF71B
:100BF0005BFC054606E0FFF757FC401B022801D9C5
:100C0000032047E7A04808380068C0F340000028E8
:100C1000F1D09D480838006820F0F800216940EACA
:100C2000C10099490839086014E00020974908601C
:100C3000FFF73AFC054606E0FFF736FC401B0228AA
:100C400001D9032026E7904808380068C0F3400027
:100C50000028F1D1207800F0080008282CD1606924
:100C6000A8B101208A490860FFF71EFC054606E08E
:100C7000FFF71AFC401B022801D903200AE782482B
:100C80006C300068C0F340000028F1D014E0002070
:100C90007F490860FFF708FC054606E0FFF704FC03
:100CA000401B022801D90320F4E677486C30006825
:100CB000C0F340000028F1D1207800F0040004289F
:100CC00070D1002670483830006800F0805090B92C
:100CD00000BF002000906C483830006840F0805021
:100CE0006949383108600846006800F0805000907B
:100CF00000BF00BF01266748006800F48070B0B9EB
:100D00006448006840F4807062490860FFF7CCFBDB
:100D1000054606E0FFF7C8FB401B022801D9032067
:100D2000B8E65C48006800F480700028F2D000BF8C
:100D3000A068012808D154486830006840F00100DC
:100D40005149683108601DE0A06805280DD14E4862
:100D50006830006840F004004B496831086008467C
:100D6000006840F0010008600CE047486830006807
:100D700020F001004449683108600846006820F00E
:100D80000400086000BFA068A8B1FFF78DFB05460E
:100D900009E0FFF789FB401B41F28831884202D904
:100DA000032077E626E0384868300068C0F340004A
:100DB0000028EED013E0FFF777FB054608E0FFF7C9
:100DC00073FB401B41F28831884201D9032061E660
:100DD0002D4868300068C0F340000028EFD1012E94
:100DE00007D129483830006820F080502649383132
:100DF000086000BFA069B8B32348006800F00C0089
:100E000008285ED0A069022846D100201F49086644
:100E1000FFF74AFB054606E0FFF746FB401B0228AA
:100E200001D9032036E6184808380068C0F340604E
:100E30000028F1D1D4E907010843616A40EA811131
:100E40000122A06AC2EB500041EA00412C20005D63
:100E500041EA00600C49091F086001200B4908663F
:100E6000FFF722FB054607E02DE0FFF71DFB401BC7
:100E7000022801D903200DE6034808380068C0F3B2
:100E800040600028F1D01EE00838024000004742D0
:100E9000800E47420070004000200C490866FFF7B2
:100EA00003FB054606E0FFF7FFFA401B022801D9C5
:100EB0000320EFE506480068C0F340600028F2D147
:100EC00001E00120E6E50020E4E5000000004742E3
:100ED0000038024070B504462546681EB0F1807F98
:100EE00001D301200FE0681E4FF0E02148610F217F
:100EF0004FF0FF3000F0BEFD00204FF0E021886190
:100F000007200861002070BD024600BF92F838003B
:100F1000012801D102207047012082F8380000BF6B
:100F2000022082F839001068406820F070001368D1
:100F30005860106840680B68184313685860106860
:100F4000806820F0800013689860106880684B68A3
:100F5000184313689860012082F8390000BF002010
:100F600082F8380000BF00BFD5E70146022081F8B3
:100F700039000868006840F001000A68106001202C
:100F800081F839000020704701460868C06840F0C9
:100F900001000A68D0600868006840F001000A6833
:100FA0001060002070472DE9F04104460D461646BA
:100FB00000BF94F83800012802D10220BDE8F0817A
:100FC000012084F8380000BF022084F8390096B967
:100FD000EB68D5E90012206801F060F820688069AC
:100FE00020F00C002168886120688069A9680843A6
:100FF000216888613DE0042E13D1EB68D5E9001229
:10100000206801F08DF82068806920F44060216834
:10101000886120688069A96840EA012021688861A8
:1010200027E0082E12D1EB68D5E90012206801F004
:1010300096F82068C06920F00C002168C86120681B
:10104000C069A96808432168C86112E0EB68D5E966
:101050000012206801F0A1F82068C06920F4406007
:101060002168C8612068C069A96840EA0120216838
:10107000C861012084F8390000BF002084F83800DE
:1010800000BF00BF9AE710B504460CB9012010BD9F
:1010900094F8390028B9002084F83800204600F080
:1010A0000CF8022084F83900211D206800F0C4FEED
:1010B000012084F839000020E9E7704710B586B0B8
:1010C0000446142101A8FFF7B9F82068B0F1804F59
:1010D0001DD100BF002000902F48006840F00100A3
:1010E0002D4908600846006800F00100009000BF2C
:1010F00000BF032001900220029000200390049082
:101100000120059001A92548FFF7D8F842E02449BD
:10111000206888421DD100BF002000901E48006852
:1011200040F001001C4908600846006800F001001A
:10113000009000BF00BFC02001900220029000205C
:10114000039004900220059001A91448FFF7B6F817
:1011500020E01449206888421CD100BF0020009084
:101160000D48006840F001000B490860084600681F
:1011700000F00100009000BF00BF04200190022099
:1011800002900020039004900220059001A90348DA
:10119000FFF794F806B010BD30380240000002405E
:1011A00000040040000C004070B504460E46154691
:1011B00000BF94F83800012801D1022070BD012041
:1011C00084F8380000BF022084F8390035B1042DBE
:1011D00009D0082D0CD00C2D14D10EE0314620681A
:1011E00000F090FE0FE03146206800F0BDFE0AE0FE
:1011F0003146206800F0F0FE05E03146206800F03E
:1012000021FF00E000BF00BF012084F8390000BFCB
:10121000002084F8380000BF00BFCFE710B50446B7
:101220000CB9012010BD94F8390028B9002084F8C9
:101230003800204600F00CF8022084F83900211D07
:10124000206800F0F9FD012084F839000020E9E76A
:1012500008B50168B1F1804F0FD100BF00210091A6
:101260000649096841F00101044A11601146096804
:1012700001F00101009100BF00BF08BD40380240ED
:1012800030B504460D4601222946206800F02CFEA8
:101290000A492068884201D1012000E0002028B1DD
:1012A0002068406C40F40040216848642068006871
:1012B00040F0010021680860002030BD00000140BE
:1012C00030B504460D4635B1042D0BD0082D10D095
:1012D0000C2D1CD114E02068C06840F00200216889
:1012E000C86015E02068C06840F004002168C8604C
:1012F0000EE02068C06840F008002168C86007E080
:101300002068C06840F010002168C86000E000BF9D
:1013100000BF01222946206800F0E6FD0A49206846
:10132000884201D1012000E0002028B12068406CF3
:1013300040F40040216848642068006840F00100E3
:1013400021680860002030BD0000014070B50446EF
:101350000D46164600BF94F83800012801D102203E
:1013600070BD012084F8380000BF022084F83900E5
:1013700036B1042E1BD0082E31D00C2E5ED145E0A4
:101380002946206800F0BEFD2068806940F0080012
:10139000216888612068806920F0040021688861E4
:1013A00020688069296908432168886147E02946E7
:1013B000206800F0D9FD2068806940F40060216851
:1013C00088612068806920F48060216888612068D5
:1013D0008069296940EA0120216888612FE0294657
:1013E000206800F0F9FD2068C06940F0080021681D
:1013F000C8612068C06920F004002168C8612068C5
:10140000C069296908432168C86118E02946206835
:1014100000F018FE2068C06940F400602168C861CF
:101420002068C06920F480602168C8612068C069B4
:10143000296940EA01202168C86100E000BF00BFBF
:10144000012084F8390000BF002084F8380000BF74
:1014500000BF85E710B504460CB9012010BD94F813
:10146000390028B9002084F83800204600F00CF834
:10147000022084F83900211D206800F0DDFC0120E5
:1014800084F839000020E9E710B586B0044614213D
:1014900001A8FEF7D3FE2449206888420FD100BF7F
:1014A000002000902148006840F002001F490860B9
:1014B0000846006800F00200009000BF32E01C49BE
:1014C000206888422ED100BF002000901748006895
:1014D00040F00800154908600846006800F0080060
:1014E000009000BF00BF00BF002000900F481038E0
:1014F000006840F001000D49103908600846006896
:1015000000F00100009000BF00BF08200190022001
:1015100002900020039004900220059001A9054844
:10152000FEF7CCFE06B010BD00040040403802407B
:10153000000C00400000024030B504460D46012278
:101540002946206800F0D0FC0A492068884201D171
:10155000012000E0002028B12068406C40F40040E9
:10156000216848642068006840F001002168086034
:10157000002030BD0000014010B504460CB9012028
:1015800010BDA06900B100E000BF94F8390028B98F
:10159000002084F83800204600F028F8242084F841
:1015A00039002068C06820F400502168C8602046D7
:1015B00000F014FE2068006920F490402168086162
:1015C0002068406920F02A00216848612068C068CE
:1015D00040F400502168C8600020E063202084F8B7
:1015E000390084F83A000020CAE7000010B586B040
:1015F0000446142101A8FEF721FE1B4920688842F9
:1016000030D100BF002000901848006840F0100062
:10161000164908600846006800F01000009000BFFE
:1016200000BF00BF0020009010481438006840F050
:1016300001000E49143908600846006800F00100F6
:10164000009000BF00BF4FF4C060019002200290E4
:1016500001200390032004900720059001A904486D
:10166000FEF72CFE06B010BD0010014044380240C9
:10167000000002402DE9F84304460D4616461F4679
:101680004FF0000994F8390020285CD105B116B953
:101690000120BDE8F88300BF94F83800012801D18B
:1016A0000220F6E7012084F8380000BF0020E06344
:1016B000212084F83900FEF7F7FE8146A684E684EF
:1016C0002BE0E08C401EE084A068B0F5805F16D16E
:1016D0004B46002280212046009700F033FF08B1DE
:1016E0000320D6E7A846B8F80000C0F30800216838
:1016F0004860206908B9AD1C0FE06D1C0DE04B4639
:10170000002280212046009700F01CFF08B1032032
:10171000BFE715F8010B21684860E08C0028D0D1A4
:101720004B46002240212046009700F00BFF08B1F5
:101730000320AEE7202084F8390000BF002084F8A1
:10174000380000BFA5E70220A3E700BFFEE70000C6
:1017500000B587B0142102A8FEF770FD00BF00207D
:1017600001902C48006840F080002A490860084633
:10177000006800F08000019000BF00BF00BF0020A3
:1017800001900846006840F00100086008460068C3
:1017900000F00100019000BF00BF00BF00200190D9
:1017A0000846006840F0020008600846006800F043
:1017B0000200019000BF00BF00BF0020019008465A
:1017C000006840F0040008600846006800F004006B
:1017D000019000BF00BF10200290002003900490F1
:1017E00002A90D48FEF76AFD012002900020039037
:1017F000049002A90948FEF761FD20200290012013
:1018000003900020049002A90348FEF757FD07B09B
:1018100000BD0000303802400000024000040240D9
:1018200000B589B00020079008901C216846FEF79B
:1018300005FD4FF080402949086053204860002191
:101840002648816040F24731C16000210161FFF705
:10185000E5FC08B1FEF731FD00200790089007A9CC
:101860001E48FFF751FB08B1FEF727FD002000904E
:101870004B200190002002900490002269461748F6
:10188000FFF792FC08B1FEF718FD042269461348E1
:10189000FFF78AFC08B1FEF710FD002000904FF41E
:1018A000E17001900C2269460C48FFF77DFC08B1FD
:1018B000FEF703FD60200090002002904A20019076
:1018C000082269460548FFF741FD08B1FEF7F5FC1F
:1018D0000248FFF7F3FB09B000BD00003000002014
:1018E00000B589B00020079008901C216846FEF7DB
:1018F000A5FC1F481F4908606320486000211D485F
:10190000816042F6DF61C16000210161FFF7A2FD45
:1019100008B1FEF7D2FC00200790089007A91548EF
:10192000FFF7F2FA08B1FEF7C8FC6020009042F21F
:10193000D0000190002002900490002269460D48DA
:10194000FFF704FD08B1FEF7B8FC42F6F82001905D
:1019500002200290042269460648FFF7F7FC08B10E
:10196000FEF7ABFC0348FFF7A9FB09B000BD000080
:10197000000400406C00002000B58DB000200B90EA
:101980000C901C2104A8FEF759FC00200090019047
:1019900002900390214822490860532048600021AA
:1019A0001F4881600921C16000210161FFF752FDDC
:1019B00008B1FEF782FC1A48FFF765FB08B1FEF795
:1019C0007CFC00200B900C900BA91548FFF79CFAAB
:1019D00008B1FEF772FC60200490052005900020FD
:1019E00006900890082204A90D48FFF7AFFC08B143
:1019F000FEF763FC0020009001200190002002907F
:101A000003900C2269460648FFF7CDFA08B1FEF7AD
:101A100054FC0348FFF752FB0DB000BD000C004022
:101A2000A800002010B50B480B4908604FF4E130C6
:101A30004860002108488160C16001610C2141615A
:101A400000218161C161FFF797FD08B1FEF735FC08
:101A500010BD000000100140E400002000BFFEE7C0
:101A60007047000002480068C0F302207047000081
:101A70000CED00E010B5002807DA0A07140E054A3D
:101A800000F00F031B1FD45403E00A07130E024A91
:101A9000135410BD18ED00E000E400E070477047FB
:101AA00010B5FEF707FD10BD00B597B030210BA8AB
:101AB000FEF7C4FB142106A8FEF7C0FB142101A801
:101AC000FEF7BCFB00BF002000902B48006840F0F0
:101AD0008050294908600846006800F08050009056
:101AE00000BF00BF00BF002000902448006820F421
:101AF000404040F40040214908600846006800F476
:101B00004040009000BF00BF09200B904FF4803090
:101B10000C900120109002201190410512910C218F
:101B200013915421149102211591042116910BA8AF
:101B3000FEF7ACFF08B1FEF7C0FB0F2006900220B5
:101B40000790002008904FF48050099000200A90E0
:101B5000022106A8FEF75CFE08B1FEF7AEFB0820E6
:101B6000019001208DF8140001A8FEF777FD08B15F
:101B7000FEF7A3FB17B000BD4038024000700040E4
:101B80001448006840F47000124908601248006868
:101B900040F001001049086000200F49083108603A
:101BA0000D4800680D4908400B4908600C48091DA4
:101BB0000860081F006820F48020091F08600020CA
:101BC00005490C3108604FF0006002498039086017
:101BD0007047000088ED00E000380240FFFFF6FE8D
:101BE0001030002410B524480068006900F001009E
:101BF00090B196204FF0804188634FF47A7048632B
:101C000042F21070C86241F2100088616FF001006A
:101C10001949096808612EE0174800680069C0F397
:101C2000001040B30120154908600BE0134800681C
:101C3000401C1249086008460068642802DD002044
:101C4000086005E010210E48FEF722FC0028EDD1C7
:101C500000BF4FF08040406A3C304FF080418863C5
:101C60004FF4415088616FF0100003490968086122
:101C700004480549086010BD30000020180000200D
:101C800000000240891D00080C00002010B5024829
:101C90000068804710BD00000C00002010B53448DB
:101CA00000680069C0F3001078B320213148FEF7C6
:101CB000F7FB3148006800F0010038B14FF448707C
:101CC0004106886340F22620486307E040F2262060
:101CD0004FF0804188634FF44870486343F230000E
:101CE0004FF08041886120212248FEF7D9FB6FF038
:101CF00010001F49096808612048006828B10020C9
:101D00001E4908601E481F4908601948006800699C
:101D100000F0010058B31848006800F0010038B125
:101D200096204FF0804188634FF4C870486305E007
:101D30004FF4C870810688639620486341F2100012
:101D40008106886120210B48FEF7AAFB2021094863
:101D5000FEF7A6FB20210748FEF7A2FB202105483D
:101D6000FEF79EFB6FF0010001490968086110BD94
:101D7000300000200000024010040240100000204B
:101D8000E51B00080C00002044F2400001068861B9
:101D900040F24730C86210480068006900F0010056
:101DA00028B16FF001000C490968086113E00A4886
:101DB00000680069C0F3001068B16FF010000649B8
:101DC000096808610548006828B1002003490860D7
:101DD00003480449086070473000002014000020C8
:101DE0009D1C00080C00002010480068006900F0ED
:101DF000010040B16FF001000C4909680861012041
:101E00000B49086010E0094800680069C0F3400011
:101E100050B16FF0020005490968086101200549C9
:101E20000860002002490860704700006C00002034
:101E3000140000201000002000220268234B98426A
:101E40000BD0B0F1804F08D0214B984205D0214BE8
:101E5000984202D0204B984201D1012300E0002398
:101E60001BB122F070024B681A43184B984214D0F1
:101E7000B0F1804F11D0164B98420ED0154B9842BE
:101E80000BD0154B984208D0144B984205D0144BF8
:101E9000984202D0134B984201D1012300E0002365
:101EA0001BB122F44072CB681A4302608B68C36294
:101EB0000B688362054B984201D1012300E00023A7
:101EC0000BB10B69036301234361704700000140BC
:101ED0000004004000080040000C004000400140A9
:101EE000004401400048014030B50023012404FAB9
:101EF00001F3046A9C430462046A02FA01F52C436C
:101F0000046230BD30B5002400220023056A25F0AC
:101F100001050562026A4368846924F0700424F0B4
:101F200003040D682C4322F002028D682A430D4DF4
:101F3000A84201D1012500E000256DB122F0080280
:101F4000CD682A4322F0040223F4807323F4007343
:101F50004D692B438D692B43436084614D68456314
:101F6000026230BD0000014030B500240022002391
:101F7000056A25F010050562026A4368846924F445
:101F8000E04424F440740D6844EA052422F0200261
:101F90008D6842EA05120F4DA84201D1012500E0EB
:101FA000002585B122F08002CD6842EA051222F0B8
:101FB000400223F4806323F400634D6943EA850300
:101FC0008D6943EA8503436084614D6885630262DD
:101FD00030BD00000000014030B500240022002385
:101FE000056A25F480750562026A4368C46924F0B5
:101FF000700424F003040D682C4322F400728D68F1
:1020000042EA05220E4DA84201D1012500E000253B
:1020100085B122F40062CD6842EA052222F4806292
:1020200023F4805323F400534D6943EA05138D696B
:1020300043EA05134360C4614D68C563026230BD65
:102040000000014030B5002200230024056A25F479
:1020500080550562036A4468C26922F4E04222F4B2
:1020600040720D6842EA052223F400538D6843EA6A
:102070000533094DA84201D1012500E0002525B115
:1020800024F480444D6944EA85144460C2614D687B
:102090000564036230BD00000000014070B50C46CD
:1020A000154600210022066A26F0010606628169B3
:1020B000026A164EB0420ED0B0F1804F0BD0144ED3
:1020C000B04208D0134EB04205D0134EB04202D0F9
:1020D000124EB04201D1012600E000261EB121F0CF
:1020E0000301294303E021F0030141F0010121F044
:1020F000F001F02606EA0316314322F00A0204F04A
:102100000A0632438161026270BD00000000014096
:102110000004004000080040000C00400040014066
:1021200070B50C46154600210022066A26F01006FE
:1021300006628169026A21F4407141EA052121F4B5
:1021400070414FF4704606EA0336314322F0A00294
:10215000A02606EA041632438161026270BD70B5A2
:102160000C46154600210022066A26F48076066297
:10217000C169026A21F00301294321F0F001F02630
:1021800006EA0316314322F420624FF4206606EA81
:1021900004263243C161026270BD70B50C4615461B
:1021A00000210022066A26F480560662C169026A8E
:1021B00021F4407141EA052121F470414FF4704649
:1021C00006EA0336314322F420424FF4204606EA61
:1021D00004363243C161026270BD00002DE9F04156
:1021E000044600252068056925F44055E06805434C
:1021F000206805612068C56849F20C608543216943
:10220000A068084361690843E16908430543206801
:10221000C5602068456925F44075A06905432068BC
:102220004561E069B0F5004F7ED1C449206888421D
:1022300003D0C349206888425DD1FEF7BFFB00EBA5
:10224000C00101EB001061684900B0FBF1F06421AE
:10225000B0FBF1F00601FEF7B1FB00EBC00101EBB2
:10226000001061684900B0FBF1F7FEF7A7FB00EB37
:10227000C00101EB001061684900B0FBF1F064217E
:10228000B0FBF1F000EBC00101EB0010A7EB800008
:10229000322101EBC0006421B0FBF1F000F0F80046
:1022A00006EB4006FEF78AFB00EBC00101EB0010D5
:1022B00061684900B0FBF1F7FEF780FB00EBC0015D
:1022C00001EB001061684900B0FBF1F06421B0FB44
:1022D000F1F000EBC00101EB0010A7EB8000322110
:1022E00001EBC0006421B0FBF1F000F007003044C6
:1022F0002168886020E1FEF751FB00EBC00101EB93
:10230000001061684900B0FBF1F06421B0FBF1F00E
:102310000601FEF743FB00EBC00101EB0010616812
:102320004900B0FBF1F700E045E0FEF737FB00EBBA
:10233000C00101EB001061684900B0FBF1F06421BD
:10234000B0FBF1F000EBC00101EB0010A7EB800047
:10235000322101EBC0006421B0FBF1F000F0F80085
:1023600006EB4006FEF71AFB00EBC00101EB001084
:1023700061684900B0FBF1F7FEF710FB00EBC0010C
:1023800001EB001061684900B0FBF1F06421B0FB83
:10239000F1F000EBC00101EB0010A7EB800032214F
:1023A00001EBC0006421B0FBF1F000F00700304405
:1023B00021688860C0E061492068884203D0604994
:1023C000206888425CD1FEF7F9FA00EBC00101EB0E
:1023D000001061688900B0FBF1F6FEF7EFFA00EB40
:1023E000C00101EB001061688900B0FBF1F06421CD
:1023F000B0FBF1F000EBC00101EB0010A6EB800098
:10240000322101EB00106421B0FBF1F000F0F00686
:10241000FEF7D4FA00EBC00101EB001061688900FF
:10242000B0FBF1F06421B0FBF1F006EB0016FEF713
:10243000C5FA00EBC00101EB001061688900B0FB38
:10244000F1F7FEF7BBFA00EBC00101EB0010616889
:102450008900B0FBF1F06421B0FBF1F000EBC001AA
:1024600001EB0010A7EB8000322101EB001064218A
:10247000B0FBF1F000F00F003044216888605BE0B1
:10248000FEF78CFA00EBC00101EB001061688900D7
:10249000B0FBF1F6FEF782FA00EBC00101EB001091
:1024A00061688900B0FBF1F06421B0FBF1F000EB52
:1024B000C00101EB0010A6EB8000322101EB0010FF
:1024C0006421B0FBF1F000F0F006FEF767FA00EBD4
:1024D000C00101EB001061688900B0FBF1F06421DC
:1024E000B0FBF1F006EB0016FEF758FA00EBC00166
:1024F00001EB001061688900B0FBF1F7FEF74EFABE
:1025000000EBC00101EB001061688900B0FBF1F045
:102510006421B0FBF1F000EBC00101EB0010A7EB70
:102520008000322101EB00106421B0FBF1F000F0DB
:102530000F00304421688860BDE8F0810010014040
:10254000001401402DE9F04104460D461746984617
:10255000069E21E0701CF8B12EB1FDF7A5FFA0EB9F
:102560000800B04218D92068C06820F4D0702168F3
:10257000C8602068406920F001002168486120207F
:1025800084F8390084F83A0000BF002084F838004D
:1025900000BF0320BDE8F081206800682840A84201
:1025A00001D1012000E00020B842D3D00020F1E7A3
:1025B00000BFFEE7014A024900F013B805260008F3
:1025C0002C00002002E008C8121F08C1002AFAD11E
:1025D00070477047002001E001C1121F002AFBD1A3
:1025E00070472DE9F04116460F460446002503E0EA
:1025F0003946B047641C6D1C20780028F8D1284665
:10260000BDE8F08113B50C464FF6FF730122694611
:102610000248FFF72FF800981CBD0000E4000020DE
:10262000FDF754FFFFF740FA1A481B4908600020E5
:102630001A490860FFF78CF8FFF7F4F9FFF7F0F894
:10264000FFF79AF9FFF74CF91C20FDF7A7FF144894
:10265000FEF78BFC08211248FEF76EFF1048FEF7CC
:1026600093FC0C210E48FEF72BFE00210C48FEF7D0
:1026700007FE04210A48FEF703FE0A48FEF775FC30
:1026800008210848FEF7FCFD02E007A0FFF792FFD3
:10269000FBE700009D1C00080C000020100000203B
:1026A00030000020A800002068656C6C6F2E2E2E74
:1026B0002E0D0A00000000000000000001020304CB
:1026C000060708090000000001020304EC260008C8
:1026D0000000002030000000C42500081C2700086E
:1026E00030000020F8040000D4250008000000009D
:1026F00000000000000000000000000000000000DA
:1027000000000000000000000000000010000000B9
:0C271000010000000024F40000000000A4
:040000050800019559
:00000001FF
