:020000040800F2
:1000000040060020A9010008DB1E00082D1C000886
:10001000D91E0008E90300080D27000800000000B1
:10002000000000000000000000000000DF1E0008CB
:100030009104000800000000DD1E0008E11E000819
:10004000C3010008C3010008C3010008C301000880
:10005000C3010008C3010008C3010008C301000870
:10006000C3010008C3010008C3010008C301000860
:10007000C3010008C3010008C3010008C301000850
:10008000C3010008C3010008B50200080000000019
:10009000000000000000000000000000C301000894
:1000A000C3010008C3010008C3010008C301000820
:1000B00091200008C3010008C3010008C301000823
:1000C000C3010008C3010008C3010008C301000800
:1000D000C301000801270008C30100080000000058
:1000E000C3010008C3010008C301000800000000AC
:1000F000000000000000000000000000C301000834
:1001000000000000C3010008B1210008C30100087D
:1001100000000000000000000000000000000000DF
:10012000ED030008C301000801040008C301000832
:10013000C3010008000000000000000000000000F3
:10014000000000000000000000000000C3010008E3
:10015000C3010008C3010008C3010008C30100086F
:10016000C3010008C30100080000000000000000F7
:10017000000000000000000000000000000000007F
:1001800000000000C30100080000000000000000A3
:10019000C3010008DFF80CD000F07AF800480047EF
:1001A0004D270008400600200648804706480047C3
:1001B000FEE7FEE7FEE7FEE7FEE7FEE7FEE7FEE717
:1001C000FEE7FEE7811F0008950100082DE9F05FBA
:1001D0000546002092469B468846064681464024B6
:1001E0001BE0284641464746224600F041F8534668
:1001F0005A46C01A914110D311461846224600F0C3
:1002000028F82D1A67EB01084F46224601200021ED
:1002100000F01FF817EB00094E41201EA4F1010465
:10022000DFDC484631462A464346BDE8F09FD2B25D
:1002300001E000F8012B491EFBD270470022F6E7CF
:1002400010B513460A4604461946FFF7F0FF20464C
:1002500010BD202A04DB203A00FA02F1002070478A
:100260009140C2F1200320FA03F3194390407047F4
:10027000202A04DB203A21FA02F00021704721FAFB
:1002800002F3D040C2F12002914008431946704762
:10029000064C074D06E0E06840F0010394E80700D3
:1002A00098471034AC42F6D3FFF778FF7C2900085A
:1002B0009C290008014800F097B900003800002090
:1002C000464910B54A6822F440324A604A68436899
:1002D0001A434A6001684A6822F480724A600168E1
:1002E0004A68036942EA03224A6001684A6822F0C8
:1002F00040724A6001684A6883681A434A6001682C
:100300008A6822F400628A6001688A68C3681A43B6
:100310008A60816A6FF07062D14201688A6822F057
:1003200070628A6001688A680CD0836A1A438A60A6
:1003300001688A6822F040528A6001688A68C36A4C
:100340001A4301E022F040528A6001688A6822F074
:1003500002028A6001688A68037E42EA43028A6078
:1003600090F82010002901684A680FD042F400621A
:100370004A6001684A6822F460424A6001684A683B
:10038000174C436A04EB43331A4301E022F4006242
:100390004A600168CA6A22F47002CA620168CA6AC5
:1003A000838B104C04EB03531A43CA6201688A68BA
:1003B00022F400728A6001688A6890F8303042EA5C
:1003C00043228A6001688A6822F480628A60016838
:1003D0008A68406942EA8020886010BD002301409D
:1003E00000E0FFFF0000F0FFFEE7000002490020F0
:1003F0000870024800F02ABA18000020800100208E
:10040000024900200870024800F020BA18000020BD
:10041000E001002001681823CAB2103AB2FBF3F2DF
:10042000054B6FF30901032A9B5CC36500D9091DC5
:1004300081650846704700005C29000810B5014638
:1004400000208B698A6A4FF0C07453B1B3F5005F26
:1004500015D072B1012A0CD0022A0AD0032A09D180
:1004600004E01AB1012A06D0022A03D1C96AC901DF
:1004700000D5012010BDC96AA142FAD010BD002AE2
:10048000F7D0012AF2D0022AF3D0032AF3D010BD0C
:10049000704770477047000078B50024009490F8CA
:1004A0003C20012A19D0012280F83C200A68072349
:1004B0000568092A13D9EE680A3A02EB4202934012
:1004C0009E43EE600B788A680A3B03EB43039A4035
:1004D0000368DD682A43DA6010E0022078BD2E69E7
:1004E00002EB420293409E432E610B788A6803EB35
:1004F00043039A4003681D692A431A614A681F230F
:10050000072A13D205686E6B521E02EB82029340DB
:100510009E436E630B790A885B1E92B203EB8303E2
:100520009A4003685D6B2A435A6327E005680D2AE9
:1005300012D22E6BD21F02EB820293409E432E6397
:100540000B790A88DB1F92B203EB83039A4003689E
:100550001D6B2A431A6311E0EE6A0D3A02EB820228
:1005600093409E43EE620B790A880D3B92B203EBF7
:1005700083039A400368DD6A2A43DA62164B0568F2
:10058000144A9D4206D10D68122D03D1556845F4D9
:100590008005556005689D4218D10B68102B01D06D
:1005A000112B13D1536843F40003536009681029D9
:1005B0000CD10A490A4A0968B1FBF2F101EB810149
:1005C000490000E0491E00910029FBD180F83C4021
:1005D000002078BD002301400020014034000020AD
:1005E00040420F007047704770B5044600680168CC
:1005F0004268C1F34001C2F3401251B34AB3216CC7
:10060000C90603D4216C41F400712164816811F0A2
:10061000405F17D1217EA9B9C16A11F4700F02D0D1
:10062000816849050ED4416821F020014160206CA9
:1006300020F480702064206CC00403D4206C40F04F
:10064000010020642046FFF7CDFF21686FF0120003
:100650000860206801684268C1F38001C2F3C012DB
:1006600089B382B3216CC90603D4216C41F40051D3
:100670002164816811F4401F1ED1816B11F4401F69
:1006800002D08168490517D44168490514D48168AE
:1006900011F0405F10D1217E71B9416821F08001D5
:1006A0004160206C20F480502064206CC00503D48D
:1006B000206C40F0010020642046FFF7EBFE21682B
:1006C0006FF00C00086020680168426811F0010FAB
:1006D000C2F380120ED06AB10068C0070AD0206C45
:1006E00040F480302064204600F046F821686FF026
:1006F00001000860206801684268C1F34011C2F33C
:10070000806200290DD0002A0BD0616C41F00201FB
:1007100061646FF0200505602046FFF764FF2068E4
:10072000056070BD70B504004FF0000503D0206C6B
:10073000002610B107E0012070BD204600F01EF831
:10074000666484F83C60206CC00610D4206C20F4F1
:10075000885040F0020020642046FFF7B1FD666437
:10076000206C20F0020040F00100206400E0012530
:1007700084F83C60284670BD7047000070B586B0B4
:10078000064614216846FFF759FD22493068884221
:100790003DD121480025016841F480710160006865
:1007A00000F4807005901C481438016841F0010184
:1007B00001600068694600F001000590402000904B
:1007C0000320CDE90105154800F07AF9154C1448CD
:1007D000C4E900050015A560C4E90350800060610C
:1007E0008000A0618011E0610002C4E90805204694
:1007F00000F0FCF808B1FFF74CFEB463002211468C
:100800001220A66300F0A0FA122000F08FFA06B0C2
:1008100070BD00000020014044380240000002404A
:10082000106402408001002090F83510022903D0A6
:100830008021416501207047052180F8351000684E
:10084000016821F001010160002070472DE9F843A3
:1008500004464FF00009CDF8009063484FF416515C
:10086000A56D0068B0FBF1F72E6894F85C100820C5
:1008700000FA01F131420FD021680A6852070BD506
:100880000A6822F004020A6094F85C108840A860AC
:10089000606D40F00100606594F85C104FF0010855
:1008A00008FA01F0304208D021684969090604D5E8
:1008B000A860606D40F00200606594F85C10042050
:1008C0008840304208D021680968890704D5A860AB
:1008D000606D40F00400606594F85C101020884062
:1008E000304218D021680968090714D5A86020682B
:1008F0000168490304D50068000308D5A16C07E02E
:100900000168C90503D4016821F008010160216C68
:1009100009B12046884794F85C1020208840304276
:1009200031D021680968C9062DD5A86094F8350032
:1009300005282068016806D0490347D500680003F0
:100940001DD4616C1CE021F0160101602068416932
:1009500021F080014161206C08B9A06C20B12068B1
:10096000016821F00801016094F85C103F20884084
:10097000A86084F8349084F83580216D1FE0E16B25
:1009800009B120468847606D00282BD0606DC007F4
:1009900014D0052084F835002068016821F0010199
:1009A00001600098401C0090B84203D8206800689D
:1009B000C007F6D184F8349084F83580E16C0029C2
:1009C00010D001B02046BDE8F04308470168C905D2
:1009D000D5D4016821F01001016084F8349084F8C6
:1009E0003580CCE7BDE8F883340000202DE9F041E4
:1009F000044600F03BF906465CB1002584F834500B
:100A0000022084F835002068016821F001010160AE
:100A10000DE00120BDE8F08100F028F9801B0528D9
:100A200005D920206065032084F83500F2E72068AE
:100A30000068C007F0D12268116820480140D4E95D
:100A400001031843D4E90336334318436369184359
:100A5000A3691843E3691843236A18430843616A8A
:100A6000042903D1D4E90B1319430843106020680B
:100A70004069666A20F0070130460E4301270428CA
:100A80000CD1A06A0643E06A40B12046FFF7D6FCCD
:100A900020B14020606584F83570BAE7206846616F
:100AA0002046FFF7B7FC94F85C203F21914081601D
:100AB000656584F835700020ACE700003F8010F0D9
:100AC0002DE9F84F00224FF0010803254FF00F0EDB
:100AD0000B6808FA02F42340A34271D14E68012E3C
:100AE00005D0022E03D0112E01D0122E15D186680A
:100AF000570005FA07FC26EA0C06D1F80CC00CFAE0
:100B000007FC4CEA060CC0F808C04668A6430C79FE
:100B1000C4F30014944034434460C668570005FA97
:100B200007FC8C6826EA0C06BC403443C4604C6861
:100B3000022C01D0122C13D1D40800EB8404A3465C
:100B4000D4F8209054074FEAD46A0EFA0AF629EA3C
:100B500006090E6906FA0AF646EA0906CBF820608D
:100B600004680E7924EA0C0406F00306BE4026430E
:100B700006604C68E40056D52E4C266846F4804644
:100B80002660246822F0030604F4804400942A4C72
:100B90003444A446D4F808489607370F0EFA07F6EF
:100BA000B443264EB04201D1002615E0244EB04297
:100BB00001D1012610E0234EB04202D102260BE003
:100BC00031E0214EB04201D1032605E01F4EB04274
:100BD00001D1042600E00726BE402643CCF8086871
:100BE0001B4E34684F689C43FF0300D51C433460A0
:100BF000174E361D34684F689C43BF0300D51C4315
:100C00003460134E083634684F689C43FF0200D5A9
:100C10001C4334600E4E0C3634684F689C43BF0250
:100C200000D51C433460521C102AFFF451AFBDE8BC
:100C3000F88F0000443802400030014000000240BC
:100C40000004024000080240000C02400010024074
:100C5000003C0140426931EA020200D1090481618D
:100C600070470AB1816170470904FBE70148806859
:100C70007047000028000020024881680278114473
:100C800081607047280000200B4810B5016841F4CE
:100C900000710160016841F480610160016841F404
:100CA00080710160032000F06FF8002000F006F86A
:100CB00000F024F8002010BD003C024070B50D4D3E
:100CC00004464FF47A712878B1FBF0F00A490968BC
:100CD000B1FBF0F000F0ACFB48B9102C07D20022B9
:100CE0002146501E00F030F800206C6070BD0120DD
:100CF00070BD000028000020340000200A4808B51C
:100D0000016841F480410160006800F48040009077
:100D10000548001F016841F080510160006800F043
:100D20008050009008BD000044380240002809DBD4
:100D300000F01F02012191404009800000F1E020F5
:100D4000C0F8001170470000F0B40E4B1B680C4651
:100D5000C3F30223C3F10705042D00D90425191D8F
:100D6000072901D2002300E0DB1E012606FA05F167
:100D7000491E214099409E40761E16403143F0BCEA
:100D800001F0C5BC0CED00E0064900F00702086860
:100D90004FF6FF03184040EA0220034A1043086060
:100DA000704700000CED00E00000FA052DE9F84363
:100DB000044600684FF00109C1074FF0000601D159
:100DC000400727D5DFF81C81C8F86860FFF74EFFA1
:100DD0000746454D05E000BFFFF748FFC01B02284E
:100DE00057D828680001F7D460688101207A41EA69
:100DF00000703D4984310860C8F86890FFF736FFFD
:100E0000074604E0FFF732FFC01B022841D82868DC
:100E10000001F7D52078800752D53348403001686B
:100E200041F0805101600068304D00F0805000902A
:100E3000286840F480702860FFF718FF074604E038
:100E4000FFF714FFC01B022823D82868C005F7D578
:100E5000254D7035286810F4407020D0A18901F428
:100E6000407181421BD0286820F440712048C0F8AE
:100E70000090066029602868C00710D0FFF7F6FED2
:100E8000064641F2883707E0FFF7F0FE801BB842C4
:100E900002D90320BDE8F88328688007F4D5E1680B
:100EA0001148C1F301220830032A12D0016821F44D
:100EB000F81101602868A189C1F30B01084328607B
:100EC0002078000703D50B49207CC1F8E001002001
:100ED000E0E70268084B22F4F81219400A43026066
:100EE000E8E7000000004742003802400070004080
:100EF000400E474200104742FFFCFF0F2DE9F0472C
:100F00000E46050065D0DFF81481D8F80000F7B26E
:100F100000F00F00B04207D288F80070D8F8000047
:100F200000F00F00B04254D128683D4C810712D523
:100F3000400703D5206840F4E0502060287800077F
:100F400003D5206840F4604020602068A96820F044
:100F5000F000084320602878C0072DD03049686829
:100F60000839012812D0022813D0032811D00968AB
:100F7000890700292DDA216821F00301014321604E
:100F8000FFF774FE814641F2883A0EE00968890352
:100F9000EFE709688901ECE7FFF768FEA0EB0901BC
:100FA000514502D90320BDE8F0872068696800F048
:100FB0000C00B0EB810FEFD1D8F80010404601F0E3
:100FC0000F01B14207D90770006800F00F00B0426E
:100FD00001D00120E7E72878400705D52068E968B7
:100FE00020F4E050084320602878000706D52068E8
:100FF000296920F4604040EAC100206000F038F820
:101000002168084AC1F30311515CC84006490860D1
:1010100006480068FFF752FE0020C4E7003C02408B
:101020000838024064290008340000202C00002009
:101030000448054900680968044AC1F38221515CEB
:10104000C840704734000020083802407429000866
:101050000448054900680968044AC1F34231515CFB
:10106000C840704734000020083802407429000846
:10107000154810B5006810F00C02144813D014493C
:10108000042A0FD0082A0ED10F4C241F226823688F
:1010900002F03F025B0207D52068C0F38810A0FB76
:1010A000010106E0084610BD2168C1F38811A1FBCB
:1010B00000010023FFF78AF82168C1F30141491CB0
:1010C0004900B0FBF1F010BD083802400024F400E4
:1010D00000366E012DE9F84F040076D02078DFF855
:1010E00038A3CE4DC00749D0DAF800105046C1F3FE
:1010F0008101012908D00068C0F3810002280AD1CB
:10110000281D0068400206D52868800336D560682F
:101110000028E2D032E06068B0F5803F10D0B0F532
:10112000A02F286810D020F480302860286820F490
:10113000802028606068A0B1FFF798FD06460CE0AB
:10114000286840F48030F4E740F480202860F7E716
:10115000FFF78CFD801B642873D828688003F7D5BF
:101160000CE0FFF783FD064605E000BFFFF77EFDBC
:10117000801B6428F0D828688003F7D42078DFF833
:10118000A08280074FF000093ED5DAF800105046E3
:1011900011F00C0F09D00068C0F3810002280BD1B8
:1011A0009D48001F0068400206D42868800715D5B6
:1011B000E068012809D111E0E068B8B10120C8F861
:1011C0000000FFF753FD064605E020E1FFF74EFD66
:1011D000801B0228C0D828688007F7D528682169B5
:1011E00020F0F80040EAC10028600DE0C8F8009047
:1011F000FFF73CFD064604E0FFF738FD801B0228A0
:101200001FD828688007F7D42078000722D5824E9F
:10121000844861696C3671B101210160FFF726FDD8
:10122000074604E0FFF722FDC01B022809D83068FA
:101230008007F7D50EE0C0F80090FFF717FD0746CE
:1012400005E082E0FFF712FDC01B02287DD8306860
:101250008007F7D42078400768D5DFF8BCB10027B5
:101260000BF1380BDBF80000C0000BD4DBF80010EA
:1012700041F08051CBF80010DBF80000012700F0AE
:1012800080500090684E3068C00510D4306840F43B
:1012900080703060FFF7EAFC009005E0FFF7E6FCA5
:1012A0000099401A022850D83068C005F6D55A4E29
:1012B000A068683601280FD00528306810D020F0CB
:1012C00001003060306820F004003060A068B8B1E0
:1012D000FFF7CCFC00900FE0306840F00100F4E72D
:1012E00040F004003060F7E7FFF7C0FC0099411AB6
:1012F00041F28830814266D830688007F4D50EE02C
:10130000FFF7B4FC009007E0FFF7B0FC0099411A2A
:1013100041F28830814256D830688007F4D42FB12A
:10132000DBF8001021F08051CBF80010A069D0B399
:10133000DAF800205146C2F38102022A4AD002287C
:10134000484607D0C8F8600000E03CE0FFF78EFC9C
:1013500004463BE04746C8F86000FFF787FC0646B6
:1013600005E000BFFFF782FC801B02282BD828680D
:101370008001F7D4D4E907010843A16A2B4A490840
:1013800002EB0141626A41EA8211084394F82C1091
:1013900040EA01612048001F016001203866FFF724
:1013A00065FC044605E034E0FFF760FC001B022802
:1013B00009D828688001F7D52BE000BFFFF756FC5D
:1013C000001B022802D90320BDE8F88F286880019D
:1013D000F4D41EE00128F7D00868E26900F4800127
:1013E000914214D1226A00F03F0191420FD147F699
:1013F000C071626A0140914209D1A26A00F4403191
:10140000914204D1E16A00F07060884201D001206D
:10141000DAE70020D8E70000083802400038024030
:1014200000004742800E4742007000400000FFFF6E
:1014300010B5401EB0F1807F01D3012010BD4FF0E8
:10144000E02460610F21601701F061F90020A061C4
:1014500007202061002010BD70B590F83C20012AC3
:101460002CD0012480F83C40022280F83D20036803
:101470005A689D6822F070060A6832435A60104B21
:1014800002689A420ED0B2F1804F0BD00D4B9A42B7
:1014900008D00D4B9A4205D00C4B9A4202D00C4B0F
:1014A0009A4204D1496825F080031943916080F87D
:1014B0003D40002180F83C10084670BD022070BD00
:1014C000000001400004004000080040000C004003
:1014D00000400140022180F83D1001688A6802F056
:1014E0000702062A03D00A6842F001020A600121BD
:1014F00080F83D10002070470168CA6842F0010280
:10150000CA600068816801F00701062903D00168FC
:1015100041F0010101600020704700002DE9F04119
:10152000044690F83C000D4601283DD0012684F881
:101530003C60022084F83D00AAB3042A46D020680B
:10154000082A55D0D5E90027E968036A23F48053B7
:101550000362D0F81CC0036A2CF4407C4CEA0727D5
:101560004FF6FF7C27F470470CEA013139434FF402
:10157000204723F4204307EA02321A43C161026282
:101580002068C16921F44061C1612068C169AA680D
:1015900041EA0221C0F81C1084F83D60002084F864
:1015A0003C00BDE8F08101E00220FAE7D5E9001235
:1015B000EB68206800F02CFF2068816921F00C01A5
:1015C000816120688169AA6811430FE0D5E90012A2
:1015D000EB68206800F052FF2068816921F44061C7
:1015E000816120688169AA6841EA02218161D3E7AB
:1015F000D5E9002C2F7B016A21F480710162C16959
:10160000036A21F0030141EA0C0121F0F00C3907D3
:101610004FF420674CEA116123F4206307EA0222A9
:101620001A43C16102622068C16921F00C01C161E5
:101630002068C169AA681143ACE710B5040003D063
:1016400094F83D0010B107E0012010BD002084F89F
:101650003C00204600F00CF8022084F83D00211DDB
:10166000206800F0D9FD012084F83D00002010BD65
:1016700010B586B0044614216846FEF7DFFD124916
:10168000206888421ED111480021026842F00202FF
:101690000260006800F0020005900C4810380268F3
:1016A00042F002020260006800F002000590032090
:1016B00000900220CDE90101CDE9031069460448FC
:1016C000FFF7FEF906B010BD0004004040380240AC
:1016D0000004024030B587B0044614216846FEF786
:1016E000ADFD24680021164A02231648B4F1804F4C
:1016F00015D0154DAC4210D1146844F001041460AB
:10170000126802F0010205920C220092CDE901312B
:10171000CDE903136946FFF7D3F907B030BD14686C
:1017200044F001041460126802F0010205920322E1
:10173000CDE902120121CDE900230491EAE700007E
:101740003038024000000240000C004070B50446F2
:1017500090F83C0001280DD0012584F83C5002206F
:1017600084F83D0042B1042A0AD0082A0CD00C2A81
:1017700011D10DE0022070BD206800F0A7FD0AE045
:10178000206800F0CBFD06E0206800F0F3FD02E0E9
:10179000206800F01BFE84F83D50002084F83C00D7
:1017A00070BD10B5040003D094F83D0010B107E0FF
:1017B000012010BD002084F83C00204600F00CF809
:1017C000022084F83D00211D206800F025FD012045
:1017D00084F83D00002010BD08B501680B48B1F148
:1017E000804F0BD00A4A914207D1016841F00801AD
:1017F0000160006800F00800009008BD016841F039
:1018000001010160006800F00100F5E74038024086
:10181000000C004010B504460068012200F048FDAD
:1018200009492068884203D1416C41F40041416478
:101830002068816801F00701062903D0016841F0A2
:1018400001010160002010BD0000014010B50268D8
:10185000044631B1042908D0082922D00C2908D126
:1018600023E0D06840F0020002E0D06840F00400BD
:10187000D0600122206800F01BFD0E4920688842DC
:1018800003D1416C41F4004141642068816801F05A
:101890000701062903D0016841F001010160002021
:1018A00010BDD06840F00800E2E7D06840F01000BA
:1018B000DEE700000000014070B5044690F83C00EF
:1018C0000D4601280DD0012684F83C60022084F8E2
:1018D0003D0042B1042A18D0082A2AD00C2A4DD142
:1018E00039E0022070BD206800F0F0FC20688169BA
:1018F00041F0080181612068816921F00401816162
:10190000206881692A69114311E0206800F006FD12
:101910002068816941F4006181612068816921F456
:1019200080618161206881692A6941EA02218161BF
:1019300024E0206800F01EFD2068C16941F0080124
:10194000C1612068C16921F00401C1612068C169D9
:101950002A69114311E0206800F038FD2068C16950
:1019600041F40061C1612068C16921F48061C161F5
:101970002068C1692A6941EA0221C16184F83D6099
:10198000002084F83C0070BD10B5040003D094F82A
:101990003D0010B107E0012010BD002084F83C009C
:1019A000204600F00CF8022084F83D00211D20683C
:1019B00000F032FC012084F83D00002010BD70478B
:1019C00010B504460068012200F072FC0949206845
:1019D000884203D1416C41F4004141642068816830
:1019E00001F00701062903D0016841F001010160FF
:1019F000002010BD000001407047000070B5026873
:101A000004461068D168536910F00F0F52D003F0EC
:101A1000010501F490762E435FD0C20705D0CA05B8
:101A200003D5E26B42F00102E263420705D5DA0713
:101A300003D0E26B42F00202E263820705D5DA07C7
:101A400003D0E26B42F00402E263020707D501F023
:101A500020022A4303D0E26B42F00802E263E26B09
:101A6000002A33D0800604D5880602D5204600F02F
:101A700036FD20684069E16BC0F38010090700D48F
:101A800028B3204600F01DFD2068416949061AD59B
:101A9000416921F040014161606BA0B11B490165C2
:101AA000606BFEF7C1FE002810D0606B016DBDE8D1
:101AB00070400847830610D58B060ED52046BDE83A
:101AC000704000F00CBD2046FFF796FF70BD204629
:101AD000FFF792FF0020E06370BD030606D50B06FA
:101AE00004D52046BDE8704000F0D8BD4006F3D5CF
:101AF0004806F1D5D168204621F04001D16020216F
:101B000084F8391000F091F870BD0000B32400088B
:101B100070B5040004D094F83900002510B106E037
:101B2000012070BD84F83850204600F023F82420AE
:101B300084F839002068C16821F40051C160204652
:101B400000F018FD2068016921F4904101612068CE
:101B5000416921F02A0141612068C16841F40051C6
:101B6000C160E563202084F8390084F83A00002041
:101B700070BD000070B586B0064614216846FEF7B9
:101B80005DFB24493068884241D123480025016823
:101B900041F010010160006800F0100005901E483F
:101BA0001438016841F0010101600068694600F0E5
:101BB000010005904FF4C0600090022001900120C8
:101BC000029003200390072004901448FEF778FF4A
:101BD000144C134820604FF00060C4E90105401424
:101BE000C4E903506561A561E5612562204665622F
:101BF000FEF7FCFE08B1FEF74CFC746300221146B0
:101C00002520A663FFF7A0F82520FFF78FF806B080
:101C100070BD000000100140443802400000024046
:101C200040640240E001002070477047FEE700007A
:101C30007FB5002412480094019402940F49039444
:101C400001604FF48031C0E901140125046105767B
:101C500080F820400B49C0E90A14C561C46080F8CF
:101C600030404561FEF75EFD0620CDE9000569467E
:101C700002940348FEF710FC7FBD000000200140E5
:101C8000380000200100000F2DE9F04387B0142137
:101C90006846FEF7D3FA34480024016841F0040195
:101CA0000160016801F004010591016841F08001C3
:101CB0000160016801F080010591016841F00101B6
:101CC0000160016801F001010591016841F0020124
:101CD00001600068254F00F002004FF46045059058
:101CE000002229463846FEF7BCFFDFF88480002238
:101CF00020214046FEF7B5FFDFF8789040F2044619
:101D0000002231464846FEF7ACFF00950125CDE99B
:101D10000154694638460394FEF7D2FE9020CDE97F
:101D20000004694640460294FEF7CAFE2020009057
:101D3000CDE90154694640460394FEF7C1FE009682
:101D4000CDE90154694648460394FEF7B9FE0220E6
:101D5000CDE90004CDE9024069464846FEF7B0FEF1
:101D600007B0BDE8F08300003038024000080240B0
:101D7000000002400004024010B58AB0002407941D
:101D80001C2168460894FEF759FA17484FF0804125
:101D9000C0E9001440F28F61C0E90241046184612E
:101DA000FFF7FFFC079407A90F480894FFF754FBBF
:101DB0009620CDE900400294002269460A48049426
:101DC000FFF7C4FC042269460748FFF7BFFC40F256
:101DD000EE2001900C2269460348FFF7B7FC024849
:101DE000FFF778FC0AB010BD8000002010B586B067
:101DF0000024164805940494009401940294124916
:101E0000039401606321C0E9011442F6DF61C0E977
:101E100003148461FFF711FC049404A90B48059492
:101E2000FFF71AFB0120CDE9004002940822694621
:101E300006480394FFF772FB0C2269460348FFF73C
:101E40006DFB06B010BD000000040040C000002083
:101E500010B58AB0002407941C2168460894FEF748
:101E6000EDF91C481A4901605321C0E9011446F2FA
:101E7000A711C0E903148461FFF793FC1548FFF72D
:101E800083FD079407A913480894FFF7E5FA44F681
:101E90002060CDE900400294002269460D48049478
:101EA000FFF754FC60200090082269460948FFF7BC
:101EB00003FD45F6D8100190022002900C226946DD
:101EC0000448FFF7F9FC0348FFF704FC0AB010BD13
:101ED000000C004000010020FEE77047704770478B
:101EE000FEF7CABE70B598B030216846FEF7A6F975
:101EF00014210CA8FEF7A2F9142111A8FEF79EF9EF
:101F00001D480025016841F080510160006800F023
:101F1000805016901948016821F4404141F4004175
:101F200001600068012600F4404016903004CDE9BD
:101F3000006002248001CDE906400C200890542066
:101F4000CDE9090404200B906846FFF7C3F80CA9FB
:101F50000F2081E83100E002CDE90F0502210CA835
:101F6000FEF7CCFF082011908DF8546011A8FEF701
:101F70001DFF18B070BD00004038024000700040E6
:101F80000548016841F47001016003494FF00060A9
:101F9000803908607047000088ED00E070B5314C72
:101FA00022681069304BC043C607304D30494FF0AE
:101FB000804025D01269D243D20620D40A68002A74
:101FC0004DD00A68022A1AD1046C2A4A1460446A65
:101FD00050348463846B446342F2200484610320A0
:101FE000086010681968411A2348036819440160A1
:101FF00010682968411A214802681144016070BDC7
:1020000040F2EE22826396264663026440F28F62BB
:10201000C26241F2100282611A4A194850600020DF
:10202000086018602860024620211748FEF719FE54
:1020300021686FF001000861144C04212046FEF76E
:1020400009FE04212046FEF705FE04212046FEF786
:1020500001FE2046BDE870400421FEF7FBBD0120D3
:10206000086070BD800000200400002008000020EF
:102070000C000020140000200000002010000020B0
:102080009D200008180000200000024000040240CB
:102090000148406800470000180000202DE9F04783
:1020A000384D2E683069DFF8E0A0C043C106374CD8
:1020B000374B4FF0804025D4DAF81010364A5FEAEB
:1020C000C168344940F2726740F21A4942F2200C6A
:1020D00002D587634F4601E0C0F838904763C0F8E7
:1020E00018C00F68D3F800C0A7EB0C0707F272679F
:1020F0000F6011682768C91B01F21A4111606FF067
:10210000100131612E683169C943C90737D1DAF846
:10211000101040F2EE22CF064FF0960141F210056A
:1021200005D58163426385611960226004E08263A2
:10213000416385611A6021606FF001023261174AC4
:102140009468002C1BD0D468002C18D1144C546017
:1021500081631960134B4363134BC3628561016450
:102160000020124D4FF48064906021462846FEF70F
:1021700071FD21462846BDE8F047FEF76BBDBDE87E
:10218000F0870000800000200000024008000020CE
:102190000400002000000020100000201800002093
:1021A0009D1F0008400D03009F68060000040240C8
:1021B00070B51648006801694FF00102C943CB07AA
:1021C00013491DD00369DB431B071DD46FF00803BF
:1021D00003610020C1E902200E4D940221462846E9
:1021E000FEF738FD21462846FEF734FD21462846F5
:1021F000FEF730FD21462846BDE87040FEF72ABDB7
:102200006FF001030361CA6070BD0000000100208F
:102210001800002000040240F0B502681D4B1E4C5F
:102220009F031E4D1E4E984207D0B84205D0A042D3
:1022300003D0A84201D0B04204D122F0700C4A6809
:1022400042EA0C02984210D0B8420ED0A0420CD004
:10225000A8420AD0B04208D0124CA04205D0124C7D
:10226000A04202D0114CA04203D122F44074CA68AB
:1022700022434C6922F08002224302608A68C262D3
:102280000A688262984201D10969016301214161B2
:10229000F0BD0000000001400004004000080040C4
:1022A000000C004000400140004401400048014053
:1022B00010B501F01F030121046A99408C430462A8
:1022C000016A9A401143016210BD000030B5026AF4
:1022D00022F001020262026A4368846924F07305F5
:1022E0000C682C4322F002058A682A430A4DA84252
:1022F0000BD122F00805CA6823F440732A434D69C4
:1023000022F004021D438B692B43436084614968BA
:102310004163026230BD00000000014030B5026A36
:1023200022F010020262026A436884690D6824F494
:10233000E64444EA05248D6822F0200242EA0512B0
:102340000B4DA8420ED1CD6822F0800242EA051260
:102350004D6923F4406343EA85038D6922F040020E
:1023600043EA85034360846149688163026230BD4A
:102370000000014030B5026A22F480720262036AF2
:102380004268C46923F4007324F073050C682C437D
:102390008D6843EA05230C4DA8420ED1CD6823F485
:1023A000006343EA05234D6922F4405242EA0512D4
:1023B0008D6923F4806342EA05124260C461496872
:1023C000C163036230BD00000000014030B5026A05
:1023D00022F480520262046A4268C3690D6823F4E1
:1023E000E64343EA05238D6824F4005444EA0534A7
:1023F000064DA84204D14D6922F4804242EA85127A
:102400004260C36149680164046230BD000001405C
:1024100070B5046A24F0010404628469056A124EEE
:10242000B0420ED0B0F1804F0BD0104EB04208D069
:102430000F4EB04205D00F4EB04202D00E4EB04209
:1024400003D124F00304144301E044F001041A070B
:1024500024F0F00444EA126225F00A0301F00A01B4
:1024600019438261016270BD000001400004004018
:1024700000080040000C00400040014030B5046AF4
:1024800024F0100404628469056A24F4407444EA68
:10249000022222F470444FF6FF7202EA0332224312
:1024A000A02425F0A00304EA01111943826101620E
:1024B00030BD10B5806B0021C185C184FFF79CFA47
:1024C00010BD0168CA6822F49072CA6001684A6946
:1024D00022F001024A61202180F83A10704710B5BD
:1024E00090F83A10222901D0022010BD8168B1F580
:1024F000805F11D00169002901681FD0496801F08F
:102500007F03816A4A1C82620B70C18D491E0904D7
:10251000090CC18518D02BE00269816A002A026883
:10252000526805D0D2B20A80816A491C8162ECE708
:10253000C2F308020A80816A891CF7E74A68816A47
:102540004B1C83620A70E0E70168CA6822F020022F
:10255000CA600168CA6822F48072CA6001684A6968
:1025600022F001024A61202180F83A10FFF75CFB5B
:10257000002010BD2DE9F041044600680169E268C1
:1025800021F44051114301612169A068E2690843C7
:102590006169114308432168CA6849F20C639A4390
:1025A0000243CA6020684169A26921F44071114365
:1025B0004161E069192764253226B0F5004F354A9C
:1025C000354920684FF0000806D0884201D090427B
:1025D00036D1FEF73DFD35E0884201D0904202D170
:1025E000FEF736FD01E0FEF723FD61684A18A0FB07
:1025F000070148EB0803FDF7E9FD0146B0FBF5F0E4
:102600000201B1FBF5F06FF01803584301EB8000B5
:1026100006EBC000B0FBF5F000F0F80002EB400262
:10262000B1FBF5F0584301EB800006EBC000B0FBB6
:10263000F5F000F00700216810448860BDE8F081E3
:10264000FEF7F6FC61688B0F8A00A0FB0701FDF71F
:10265000BDFD0146B0FBF5F06FF01802504301EBF1
:10266000800006EB0010B0FBF5F000F0F002B1FBCB
:10267000F5F002EB0012B1FBF5F06FF018035843D0
:1026800001EB800006EB0010B0FBF5F000F00F004E
:10269000D1E70000001401400010014090F839100B
:1026A000212901D0022070478168B1F5805F016A5D
:1026B0000BD04A1C0262026809785160C18C491E25
:1026C0000904090CC1840ED017E009880268C1F31F
:1026D0000801516001690029016A02D0491C0162A8
:1026E000ECE7891CFBE70168CA6822F08002CA6037
:1026F0000068C16841F04001C160002070470000DF
:102700000148FFF77BB9000040010020FEE7090700
:10271000090E002804DB00F1E02080F80014704767
:1027200000F00F0000F1E02080F8141D704702E077
:1027300008C8121F08C1002AFAD17047704700204C
:1027400001E001C1121F002AFBD170478CB0FEF7D7
:102750009BFAFFF7C7FB7749754800240860764865
:102760000460FFF791FA7548016841F48001016047
:102770000068002200F48000009011463820FEF727
:10278000E3FA3820FEF7D2FA002211463A20FEF78B
:10279000DBFA3A20FEF7CAFA6A48694901604FF449
:1027A000E131C0E901140C21C460C0E90441846135
:1027B000C461FFF7ADF9FFF7DFFAFFF749FBFFF759
:1027C00015FBFFF735FA1C216846FDF737FD14218C
:1027D00007A8FDF733FD0827CDE907740226DFF8C7
:1027E0006891CDE9094607A94D464846FEF768F9C4
:1027F00056480294CDE9004052480C226946C03840
:102800000494FEF7A3FF002220212846FEF729FAB0
:102810004F4D002231032846FEF723FA0022B10370
:102820002846FEF71EFA002271032846FEF719FA21
:102830001C20FEF77BFA4348C038FEF74BFE4148A8
:102840000821C038FFF7BCF83E48C038FEF754FEF8
:102850003C480C21C038FEF7F9FF3A480021C03847
:10286000FEF7D8FF37480421C038FEF7D3FF3220E7
:10287000FEF75CFA33484038FEF72CFE314840380A
:10288000FEF73AFE2F4808214038FEF7DFFFDFF859
:10289000C4B0314D4FF0804AE868012801D0E868A3
:1028A000FAE7594608688007FCD4DAF82420504635
:1028B0006432CAF83820DAF838206432CAF8342092
:1028C00042F21002CAF81820DAF838206B68D21ADF
:1028D0002B681A442A60DAF83420AA600A68920742
:1028E000FCD5416A3C31816341F210018161806B0A
:1028F0006860EE6005940694079414216846089475
:10290000FDF79CFC0097CDE901644FF00108CDE98B
:10291000036869464846FEF7D3F8CDE906840948BE
:1029200005960C2205A9C0380894FEF7F7FDB3E719
:102930009D2000081C0000202000002030380240AC
:102940000010014040010020000002409F68060086
:10295000000802401004024000000020000610168B
:102960000006101600000000000000000102030431
:102970000607080900000000010203049C29000862
:1029800000000020380000002E270008D42900088D
:1029900038000020080600003E2700080000000064
:1029A0000000000000000000000000000000000027
:1029B0000000000000000000000000000000000017
:1029C00000000000010000001000000000000000F6
:0429D0000024F400EB
:040000050800019559
:00000001FF
