:020000040800F2
:1000000070460020A9010008C71F0008031D000852
:10001000C51F000815040008E928000800000000BA
:10002000000000000000000000000000CB1F0008DE
:10003000AD04000800000000C91F0008CD1F000823
:10004000C3010008C3010008C3010008C301000880
:10005000C3010008C3010008C3010008C301000870
:10006000C3010008C3010008C3010008C301000860
:10007000C3010008C3010008C3010008C301000850
:10008000C3010008C3010008E102000800000000ED
:10009000000000000000000000000000C301000894
:1000A000C3010008C3010008C3010008C301000820
:1000B000CD210008C3010008C3010008C3010008E6
:1000C000C3010008C3010008C3010008C301000800
:1000D000C3010008DD280008C3010008000000007B
:1000E000C3010008C3010008C301000800000000AC
:1000F000000000000000000000000000C301000834
:1001000000000000C301000829230008C301000803
:1001100000000000000000000000000000000000DF
:1001200019040008C301000825040008C3010008E1
:10013000C3010008000000000000000000000000F3
:10014000000000000000000000000000C3010008E3
:10015000C3010008C3010008C3010008C30100086F
:10016000C3010008C30100080000000000000000F7
:10017000000000000000000000000000000000007F
:1001800000000000C30100080000000000000000A3
:10019000C3010008DFF80CD000F090F800480047D9
:1001A000792B000870460020064880470648004723
:1001B000FEE7FEE7FEE7FEE7FEE7FEE7FEE7FEE717
:1001C000FEE7FEE76D200008950100082DE9F05FCD
:1001D0000546002092469B468846064681464024B6
:1001E0001BE0284641464746224600F057F8534652
:1001F0005A46C01A914110D311461846224600F0C3
:100200003EF82D1A67EB01084F46224601200021D7
:1002100000F035F817EB00094E41201EA4F101044F
:10022000DFDC484631462A464346BDE8F09FD2B25D
:1002300001E000F8012B491EFBD270470022F6E7CF
:1002400010B513460A4604461946FFF7F0FF20464C
:1002500010BD30B50B46014600202022012409E0E4
:1002600021FA02F59D4205D303FA02F5491B04FA6F
:1002700002F52844151EA2F10102F1DC30BD202A4E
:1002800004DB203A00FA02F1002070479140C2F1ED
:10029000200320FA03F3194390407047202A04DB1F
:1002A000203A21FA02F00021704721FA02F3D040EF
:1002B000C2F120029140084319467047064C074D91
:1002C00006E0E06840F0010394E807009847103426
:1002D000AC42F6D3FFF762FF742E0008942E00089C
:1002E000014800F08FB9000064000020464910B5B5
:1002F0004A6822F440324A604A6843681A434A60B6
:1003000001684A6822F480724A6001684A68036999
:1003100042EA03224A6001684A6822F040724A6059
:1003200001684A6883681A434A6001688A6822F44F
:1003300000628A6001688A68C3681A438A60816AB9
:100340006FF07062D14201688A6822F070628A6040
:1003500001688A680CD0836A1A438A6001688A68D7
:1003600022F040528A6001688A68C36A1A4301E039
:1003700022F040528A6001688A6822F002028A6094
:1003800001688A68037E42EA43028A6090F820107E
:10039000002901684A680FD042F400624A6001688F
:1003A0004A6822F460424A6001684A68174C436A0E
:1003B00004EB43331A4301E022F400624A6001680F
:1003C000CA6A22F47002CA620168CA6A838B104C3E
:1003D00004EB03531A43CA6201688A6822F400726C
:1003E0008A6001688A6890F8303042EA43228A6065
:1003F00001688A6822F480628A6001688A684069BC
:1004000042EA8020886010BD0023014000E0FFFF29
:100410000000F0FFFEE70000014800F025BA0000F0
:10042000AC410020014800F01FBA00000C4200203F
:1004300001681823CAB2103AB2FBF3F2054B6FF30E
:100440000901032A9B5CC36500D9091D8165084623
:1004500070470000542E000810B5014600208B693B
:100460008A6A4FF0C07453B1B3F5005F15D072B112
:10047000012A0CD0022A0AD0032A09D104E01AB1B9
:10048000012A06D0022A03D1C96AC90100D5012078
:1004900010BDC96AA142FAD010BD002AF7D0012AC6
:1004A000F2D0022AF3D0032AF3D010BD7047704770
:1004B0007047000078B50024009490F83C20012A91
:1004C00019D0012280F83C200A6807230568092A10
:1004D00013D9EE680A3A02EB420293409E43EE6063
:1004E0000B788A680A3B03EB43039A400368DD6894
:1004F0002A43DA6010E0022078BD2E6902EB420246
:1005000093409E432E610B788A6803EB43039A4025
:1005100003681D692A431A614A681F23072A13D2F8
:1005200005686E6B521E02EB820293409E436E631F
:100530000B790A885B1E92B203EB83039A4003682F
:100540005D6B2A435A6327E005680D2A12D22E6B91
:10055000D21F02EB820293409E432E630B790A88DE
:10056000DB1F92B203EB83039A4003681D6B2A439F
:100570001A6311E0EE6A0D3A02EB820293409E4349
:10058000EE620B790A880D3B92B203EB83039A402B
:100590000368DD6A2A43DA62164B0568144A9D42F5
:1005A00006D10D68122D03D1556845F480055560BC
:1005B00005689D4218D10B68102B01D0112B13D167
:1005C000536843F400035360096810290CD10A49A9
:1005D0000A4A0968B1FBF2F101EB8101490000E030
:1005E000491E00910029FBD180F83C40002078BDD5
:1005F00000230140002001405C00002040420F0029
:100600007047704770B50446006801684268C1F3DE
:100610004001C2F3401251B34AB3216CC90603D45E
:10062000216C41F400712164816811F0405F17D1A1
:10063000217EA9B9C16A11F4700F02D08168490501
:100640000ED4416821F020014160206C20F48070BC
:100650002064206CC00403D4206C40F001002064AE
:100660002046FFF7CDFF21686FF012000860206878
:1006700001684268C1F38001C2F3C01289B382B33A
:10068000216CC90603D4216C41F4005121648168B6
:1006900011F4401F1ED1816B11F4401F02D08168FC
:1006A000490517D44168490514D4816811F0405FA9
:1006B00010D1217E71B9416821F080014160206C28
:1006C00020F480502064206CC00503D4206C40F0DE
:1006D000010020642046FFF7EBFE21686FF00C005C
:1006E000086020680168426811F0010FC2F38012AF
:1006F0000ED06AB10068C0070AD0206C40F4803088
:100700002064204600F046F821686FF00100086080
:10071000206801684268C1F34011C2F38062002979
:100720000DD0002A0BD0616C41F0020161646FF0C2
:10073000200505602046FFF764FF2068056070BD56
:1007400070B504004FF0000503D0206C002610B1F6
:1007500007E0012070BD204600F01EF8666484F8B2
:100760003C60206CC00610D4206C20F4885040F00F
:10077000020020642046FFF7B9FD6664206C20F07B
:10078000020040F00100206400E0012584F83C6094
:10079000284670BD7047000070B586B0064614212B
:1007A0006846FFF74BFD2249306888423DD1214819
:1007B0000025016841F480710160006800F48070D8
:1007C00005901C481438016841F00101016000687F
:1007D000694600F001000590402000900320CDE91B
:1007E0000105154800F07AF9154C1448C4E90005D4
:1007F0000015A560C4E90350800060618000A0611D
:100800008011E0610002C4E90805204600F0FCF810
:1008100008B1FFF74CFEB463002211461220A66314
:1008200000F0A0FA122000F08FFA06B070BD0000B0
:1008300000200140443802400000024010640240A1
:10084000AC41002090F83510022903D08021416589
:1008500001207047052180F835100068016821F0FB
:1008600001010160002070472DE9F84304464FF074
:100870000009CDF8009063484FF41651A56D00684B
:10088000B0FBF1F72E6894F85C10082000FA01F133
:1008900031420FD021680A6852070BD50A6822F04E
:1008A00004020A6094F85C108840A860606D40F013
:1008B0000100606594F85C104FF0010808FA01F03F
:1008C000304208D021684969090604D5A860606DE6
:1008D00040F00200606594F85C10042088403042CB
:1008E00008D021680968890704D5A860606D40F0C8
:1008F0000400606594F85C1010208840304218D0E5
:1009000021680968090714D5A860206801684903AF
:1009100004D50068000308D5A16C07E00168C9058B
:1009200003D4016821F008010160216C09B120465F
:10093000884794F85C1020208840304231D02168EC
:100940000968C9062DD5A86094F8350005282068E7
:10095000016806D0490347D5006800031DD4616CC7
:100960001CE021F0160101602068416921F080013E
:100970004161206C08B9A06C20B12068016821F0A9
:100980000801016094F85C103F208840A86084F85A
:10099000349084F83580216D1FE0E16B09B1204669
:1009A0008847606D00282BD0606DC00714D00520EB
:1009B00084F835002068016821F001010160009889
:1009C000401C0090B84203D820680068C007F6D1E8
:1009D00084F8349084F83580E16C002910D001B09F
:1009E0002046BDE8F04308470168C905D5D4016831
:1009F00021F01001016084F8349084F83580CCE750
:100A0000BDE8F8835C0000202DE9F041044600F0C9
:100A10003BF906465CB1002584F83450022084F886
:100A200035002068016821F0010101600DE001201E
:100A3000BDE8F08100F028F9801B052805D92020A9
:100A40006065032084F83500F2E720680068C0077D
:100A5000F0D12268116820480140D4E9010318430D
:100A6000D4E903363343184363691843A369184331
:100A7000E3691843236A18430843616A042903D1D0
:100A8000D4E90B1319430843106020684069666A73
:100A900020F0070130460E43012704280CD1A06A3C
:100AA0000643E06A40B12046FFF7D6FC20B1402063
:100AB000606584F83570BAE7206846612046FFF724
:100AC000B7FC94F85C203F2191408160656584F813
:100AD00035700020ACE700003F8010F02DE9F84FA2
:100AE00000224FF0010803254FF00F0E0B6808FAA3
:100AF00002F42340A34271D14E68012E05D0022E8C
:100B000003D0112E01D0122E15D18668570005FA98
:100B100007FC26EA0C06D1F80CC00CFA07FC4CEADC
:100B2000060CC0F808C04668A6430C79C4F300144C
:100B3000944034434460C668570005FA07FC8C684B
:100B400026EA0C06BC403443C4604C68022C01D039
:100B5000122C13D1D40800EB8404A346D4F82090BF
:100B600054074FEAD46A0EFA0AF629EA06090E6912
:100B700006FA0AF646EA0906CBF8206004680E7900
:100B800024EA0C0406F00306BE40264306604C68C7
:100B9000E40056D52E4C266846F48046266024682C
:100BA00022F0030604F4804400942A4C3444A44602
:100BB000D4F808489607370F0EFA07F6B443264EC6
:100BC000B04201D1002615E0244EB04201D10126E9
:100BD00010E0234EB04202D102260BE031E0214E5C
:100BE000B04201D1032605E01F4EB04201D10426D8
:100BF00000E00726BE402643CCF808681B4E346848
:100C00004F689C43FF0300D51C433460174E361DCC
:100C100034684F689C43BF0300D51C433460134EB7
:100C2000083634684F689C43FF0200D51C4334608B
:100C30000E4E0C3634684F689C43BF0200D51C43EF
:100C40003460521C102AFFF451AFBDE8F88F000049
:100C500044380240003001400000024000040240DD
:100C600000080240000C024000100240003C01401D
:100C7000426931EA020200D10904816170470AB178
:100C8000816170470904FBE70148806870470000F4
:100C9000500000200248816802781144816070474A
:100CA000500000200B4810B5016841F4007101604C
:100CB000016841F480610160016841F48071016064
:100CC000032000F06FF8002000F006F800F024F890
:100CD000002010BD003C024070B50D4D04464FF49D
:100CE0007A712878B1FBF0F00A490968B1FBF0F09D
:100CF00000F0ACFB48B9102C07D200222146501E50
:100D000000F030F800206C6070BD012070BD000064
:100D1000500000205C0000200A4808B5016841F43A
:100D200080410160006800F4804000900548001F89
:100D3000016841F080510160006800F0805000902F
:100D400008BD000044380240002809DB00F01F0203
:100D5000012191404009800000F1E020C0F800111D
:100D600070470000F0B40E4B1B680C46C3F302231F
:100D7000C3F10705042D00D90425191D072901D247
:100D8000002300E0DB1E012606FA05F1491E214082
:100D900099409E40761E16403143F0BC01F0B6BD2E
:100DA0000CED00E0064900F0070208684FF6FF036B
:100DB000184040EA0220034A1043086070470000D0
:100DC0000CED00E00000FA052DE9F8430446006848
:100DD0004FF00109C1074FF0000601D1400727D5A8
:100DE000DFF81C81C8F86860FFF74EFF0746454DE5
:100DF00005E000BFFFF748FFC01B022857D828684E
:100E00000001F7D460688101207A41EA00703D4911
:100E100084310860C8F86890FFF736FF074604E0A1
:100E2000FFF732FFC01B022841D828680001F7D520
:100E30002078800752D533484030016841F0805116
:100E400001600068304D00F080500090286840F448
:100E500080702860FFF718FF074604E0FFF714FFD3
:100E6000C01B022823D82868C005F7D5254D70354A
:100E7000286810F4407020D0A18901F440718142AB
:100E80001BD0286820F440712048C0F8009006600C
:100E900029602868C00710D0FFF7F6FE064641F229
:100EA000883707E0FFF7F0FE801BB84202D9032025
:100EB000BDE8F88328688007F4D5E1681148C1F3DC
:100EC00001220830032A12D0016821F4F8110160D0
:100ED0002868A189C1F30B01084328602078000726
:100EE00003D50B49207CC1F8E0010020E0E702684F
:100EF000084B22F4F81219400A430260E8E70000A8
:100F0000000047420038024000700040400E474257
:100F100000104742FFFCFF0F2DE9F0470E46050089
:100F200065D0DFF81481D8F80000F7B200F00F00A8
:100F3000B04207D288F80070D8F8000000F00F0027
:100F4000B04254D128683D4C810712D5400703D5E3
:100F5000206840F4E05020602878000703D520681E
:100F600040F4604020602068A96820F0F000084349
:100F700020602878C0072DD03049686808390128DA
:100F800012D0022813D0032811D00968890700293C
:100F90002DDA216821F0030101432160FFF774FE7F
:100FA000814641F2883A0EE009688903EFE7096853
:100FB0008901ECE7FFF768FEA0EB0901514502D972
:100FC0000320BDE8F0872068696800F00C00B0EBF2
:100FD000810FEFD1D8F80010404601F00F01B14267
:100FE00007D90770006800F00F00B04201D001205F
:100FF000E7E72878400705D52068E96820F4E05045
:10100000084320602878000706D52068296920F465
:10101000604040EAC100206000F038F82168084ACA
:10102000C1F30311515CC8400649086006480068D6
:10103000FFF752FE0020C4E7003C0240083802409F
:101040005C2E00085C000020540000200448054984
:1010500000680968044AC1F38221515CC8407047A6
:101060005C000020083802406C2E00080448054946
:1010700000680968044AC1F34231515CC8407047B6
:101080005C000020083802406C2E0008154810B59E
:10109000006810F00C02144813D01449042A0FD031
:1010A000082A0ED10F4C241F2268236802F03F0249
:1010B0005B0207D52068C0F38810A0FB010106E0A1
:1010C000084610BD2168C1F38811A1FB000100236F
:1010D000FFF77CF82168C1F30141491C4900B0FBCE
:1010E000F1F010BD083802400024F40000366E0113
:1010F0002DE9F84F040076D02078DFF838A3CE4DE4
:10110000C00749D0DAF800105046C1F38101012927
:1011100008D00068C0F3810002280AD1281D0068A9
:10112000400206D52868800336D560680028E2D0E2
:1011300032E06068B0F5803F10D0B0F5A02F28688D
:1011400010D020F480302860286820F480202860A7
:101150006068A0B1FFF798FD06460CE0286840F4EF
:101160008030F4E740F480202860F7E7FFF78CFD3B
:10117000801B642873D828688003F7D50CE0FFF73C
:1011800083FD064605E000BFFFF77EFD801B642857
:10119000F0D828688003F7D42078DFF8A082800791
:1011A0004FF000093ED5DAF80010504611F00C0F50
:1011B00009D00068C0F3810002280BD19D48001FB0
:1011C0000068400206D42868800715D5E068012829
:1011D00009D111E0E068B8B10120C8F80000FFF7BC
:1011E00053FD064605E020E1FFF74EFD801B022877
:1011F000C0D828688007F7D52868216920F0F80052
:1012000040EAC10028600DE0C8F80090FFF73CFDFF
:10121000064604E0FFF738FD801B02281FD8286827
:101220008007F7D42078000722D5824E8448616970
:101230006C3671B101210160FFF726FD074604E01D
:10124000FFF722FDC01B022809D830688007F7D5B8
:101250000EE0C0F80090FFF717FD074605E082E0BA
:10126000FFF712FDC01B02287DD830688007F7D435
:101270002078400768D5DFF8BCB100270BF1380BA8
:10128000DBF80000C0000BD4DBF8001041F0805107
:10129000CBF80010DBF80000012700F08050009030
:1012A000684E3068C00510D4306840F480703060FB
:1012B000FFF7EAFC009005E0FFF7E6FC0099401A12
:1012C000022850D83068C005F6D55A4EA068683656
:1012D00001280FD00528306810D020F001003060C0
:1012E000306820F004003060A068B8B1FFF7CCFC93
:1012F00000900FE0306840F00100F4E740F0040097
:101300003060F7E7FFF7C0FC0099411A41F28830DE
:10131000814266D830688007F4D50EE0FFF7B4FC50
:10132000009007E0FFF7B0FC0099411A41F28830C5
:10133000814256D830688007F4D42FB1DBF8001012
:1013400021F08051CBF80010A069D0B3DAF800206A
:101350005146C2F38102022A4AD00228484607D0E9
:10136000C8F8600000E03CE0FFF78EFC04463BE07C
:101370004746C8F86000FFF787FC064605E000BF57
:10138000FFF782FC801B02282BD828688001F7D445
:10139000D4E907010843A16A2B4A490802EB01413D
:1013A000626A41EA8211084394F82C1040EA016114
:1013B0002048001F016001203866FFF765FC0446E5
:1013C00005E034E0FFF760FC001B022809D828681C
:1013D0008001F7D52BE000BFFFF756FC001B022869
:1013E00002D90320BDE8F88F28688001F4D41EE0FC
:1013F0000128F7D00868E26900F48001914214D115
:10140000226A00F03F0191420FD147F6C071626A33
:101410000140914209D1A26A00F44031914204D1C5
:10142000E16A00F07060884201D00120DAE7002014
:10143000D8E7000008380240003802400000474268
:10144000800E4742007000400000FFFF10B5401EB4
:10145000B0F1807F01D3012010BD4FF0E024606126
:101460000F21601701F052FA0020A06107202061CF
:10147000002010BD70B590F83C20012A2CD001242A
:1014800080F83C40022280F83D2003685A689D683D
:1014900022F070060A6832435A60104B02689A4282
:1014A0000ED0B2F1804F0BD00D4B9A4208D00D4BAD
:1014B0009A4205D00C4B9A4202D00C4B9A4204D16E
:1014C000496825F080031943916080F83D40002170
:1014D00080F83C10084670BD022070BD000001403D
:1014E0000004004000080040000C004000400140A3
:1014F000022180F83D1001688A6802F00702062A7E
:1015000003D00A6842F001020A60012180F83D1010
:10151000002070470168CA6842F00102CA60006892
:10152000816801F00701062903D0016841F001013B
:1015300001600020704700002DE9F041044690F85A
:101540003C000D4601283DD0012684F83C60022075
:1015500084F83D00AAB3042A46D02068082A55D052
:10156000D5E90027E968036A23F480530362D0F8C1
:101570001CC0036A2CF4407C4CEA07274FF6FF7C22
:1015800027F470470CEA013139434FF4204723F424
:10159000204307EA02321A43C16102622068C1692E
:1015A00021F44061C1612068C169AA6841EA022151
:1015B000C0F81C1084F83D60002084F83C00BDE8B1
:1015C000F08101E00220FAE7D5E90012EB6820681B
:1015D00000F0DAFF2068816921F00C018161206848
:1015E0008169AA6811430FE0D5E90012EB68206811
:1015F00001F000F82068816921F440618161206870
:101600008169AA6841EA02218161D3E7D5E9002C0A
:101610002F7B016A21F480710162C169036A21F0A4
:10162000030141EA0C0121F0F00C39074FF4206767
:101630004CEA116123F4206307EA02221A43C161D4
:1016400002622068C16921F00C01C1612068C16992
:10165000AA681143ACE710B5040003D094F83D002C
:1016600010B107E0012010BD002084F83C002046A6
:1016700000F00CF8022084F83D00211D206800F0E5
:1016800087FE012084F83D00002010BD10B586B013
:10169000044614216846FEF7D1FD124920688842AD
:1016A0001ED111480021026842F002020260006867
:1016B00000F0020005900C481038026842F0020267
:1016C0000260006800F002000590032000900220F4
:1016D000CDE90101CDE9031069460448FFF7FEF9A1
:1016E00006B010BD00040040403802400004024033
:1016F00030B587B0044614216846FEF79FFD246884
:101700000021164A02231648B4F1804F15D0154D1A
:10171000AC4210D1146844F001041460126802F065
:10172000010205920C220092CDE90131CDE90313AB
:101730006946FFF7D3F907B030BD146844F00104DF
:101740001460126802F0010205920322CDE9021230
:101750000121CDE900230491EAE70000303802407E
:1017600000000240000C004070B5044690F83C00B8
:1017700001280DD0012584F83C50022084F83D005A
:1017800042B1042A0AD0082A0CD00C2A11D10DE04B
:10179000022070BD206800F055FE0AE0206800F0CD
:1017A00079FE06E0206800F0A1FE02E0206800F06B
:1017B000C9FE84F83D50002084F83C0070BD10B58F
:1017C000040003D094F83D0010B107E0012010BDE3
:1017D000002084F83C00204600F00CF8022084F839
:1017E0003D00211D206800F0D3FD012084F83D005C
:1017F000002010BD08B501680B48B1F1804F0BD037
:101800000A4A914207D1016841F00801016000686D
:1018100000F00800009008BD016841F0010101607E
:10182000006800F00100F5E740380240000C00407D
:1018300010B504460068012200F0F6FD0949206851
:10184000884203D1416C41F40041416420688168C1
:1018500001F00701062903D0016841F00101016090
:10186000002010BD0000014010B50268044631B1EF
:10187000042908D0082922D00C2908D123E0D068F7
:1018800040F0020002E0D06840F00400D060012285
:10189000206800F0C9FD0E492068884203D1416CE0
:1018A00041F4004141642068816801F00701062984
:1018B00003D0016841F001010160002010BDD06833
:1018C00040F00800E2E7D06840F01000DEE70000DA
:1018D0000000014070B5044690F83C000D46012818
:1018E0000DD0012684F83C60022084F83D0042B10E
:1018F000042A18D0082A2AD00C2A4DD139E0022017
:1019000070BD206800F09EFD2068816941F00801EB
:1019100081612068816921F0040181612068816909
:101920002A69114311E0206800F0B4FD2068816944
:1019300041F4006181612068816921F480618161E5
:10194000206881692A6941EA0221816124E02068D6
:1019500000F0CCFD2068C16941F00801C161206838
:10196000C16921F00401C1612068C1692A6911437C
:1019700011E0206800F0E6FD2068C16941F40061D3
:10198000C1612068C16921F48061C1612068C169B9
:101990002A6941EA0221C16184F83D60002084F88F
:1019A0003C0070BD10B5040003D094F83D0010B1A8
:1019B00007E0012010BD002084F83C00204600F024
:1019C0000CF8022084F83D00211D206800F0E0FCA6
:1019D000012084F83D00002010BD704710B504467A
:1019E0000068012200F020FD09492068884203D1E7
:1019F000416C41F4004141642068816801F00701B5
:101A0000062903D0016841F001010160002010BDEA
:101A1000000001407047000070B50268044610687D
:101A2000D168536910F00F0F52D003F0010501F493
:101A300090762E435FD0C20705D0CA0503D5E26B6E
:101A400042F00102E263420705D5DA0703D0E26BF8
:101A500042F00202E263820705D5DA0703D0E26BA7
:101A600042F00402E263020707D501F020022A4394
:101A700003D0E26B42F00802E263E26B002A33D04B
:101A8000800604D5880602D5204600F0E4FD2068D3
:101A90004069E16BC0F38010090700D428B32046E9
:101AA00000F0CBFD2068416949061AD5416921F053
:101AB00040014161606BA0B11B490165606BFEF79D
:101AC000C1FE002810D0606B016DBDE87040084772
:101AD000830610D58B060ED52046BDE8704000F079
:101AE000BABD2046FFF796FF70BD2046FFF792FF74
:101AF0000020E06370BD030606D50B0604D5204622
:101B0000BDE8704000F086BE4006F3D54806F1D52A
:101B1000D168204621F04001D160202184F839109D
:101B200000F0EEF870BD00002B26000870B5040030
:101B300004D094F83900002510B106E0012070BDF2
:101B400084F83850204600F023F8242084F8390027
:101B50002068C16821F40051C160204600F0C6FD34
:101B60002068016921F4904101612068416921F0F8
:101B70002A0141612068C16841F40051C160E563F8
:101B8000202084F8390084F83A00002070BD00005D
:101B900070B586B0064614216846FEF74FFB24490F
:101BA0003068884241D123480025016841F0100186
:101BB0000160006800F0100005901E4814380168AC
:101BC00041F0010101600068694600F001000590E4
:101BD0004FF4C06000900220019001200290032089
:101BE0000390072004901448FEF778FF144C134824
:101BF00020604FF00060C4E901054014C4E90350BF
:101C00006561A561E561256220466562FEF7FCFE1F
:101C100008B1FEF74CFC7463002211462520A66330
:101C2000FFF7A0F82520FFF78FF806B070BD000081
:101C3000001001404438024000000240406402406D
:101C40000C42002070472DE9F843044690F8390013
:101C50001F4616460D46202850D1B5B1AEB194F8B6
:101C6000380001284AD0012084F838004FF00008DD
:101C7000C4F83C80212084F83900FFF705F8A684D9
:101C80008146E68484F8388026E00120BDE8F883A8
:101C9000E08C401EE084A0684B46B0F5805F4FF0BA
:101CA00000024FF080012046009703D000F0E3FDD2
:101CB000E8B90DE000F0DFFDC8B928882168C0F35D
:101CC00008004860206908B16D1C05E0AD1C03E008
:101CD000216815F8010B4860E08C0028D8D14B46EC
:101CE000002240212046009700F0C5FD08B10320E6
:101CF000CCE7202084F839000020C7E70220C5E7A0
:101D00007047FEE77FB500241248009401940294C6
:101D10000F49039401604FF48031C0E9011401259B
:101D20000461057680F820400B49C0E90A14C561BA
:101D3000C46080F830404561FEF702FD0620CDE921
:101D40000005694602940348FEF7B4FB7FBD00001E
:101D500000200140640000200100000F2DE9F04345
:101D600087B014216846FEF769FA344800240168F8
:101D700041F004010160016801F00401059101686E
:101D800041F080010160016801F080010591016866
:101D900041F001010160016801F001010591016854
:101DA00041F0020101600068254F00F002004FF48D
:101DB00060450590002229463846FEF760FFDFF8AF
:101DC0008480002220214046FEF759FFDFF87890FA
:101DD00040F20446002231464846FEF750FF009587
:101DE0000125CDE90154694638460394FEF776FE95
:101DF0009020CDE90004694640460294FEF76EFE4D
:101E000020200090CDE90154694640460394FEF736
:101E100065FE0096CDE90154694648460394FEF7F5
:101E20005DFE0220CDE90004CDE902406946484646
:101E3000FEF754FE07B0BDE8F083000030380240E2
:101E400000080240000002400004024010B58AB0C1
:101E5000002407941C2168460894FEF7EFF9174800
:101E60004FF08041C0E9001440F28F61C0E90241A7
:101E700004618461FFF7A3FC079407A90F48089445
:101E8000FFF7F8FA9620CDE9004002940022694657
:101E90000A480494FFF768FC042269460748FFF7E4
:101EA00063FC40F2EE2001900C2269460348FFF7E4
:101EB0005BFC0248FFF71CFC0AB010BDAC00002020
:101EC00010B586B00024164805940494009401943B
:101ED00002941249039401606321C0E9011442F69F
:101EE000DF61C0E903148461FFF7B5FB049404A922
:101EF0000B480594FFF7BEFA0120CDE9004002949B
:101F00000822694606480394FFF716FB0C2269462F
:101F10000348FFF711FB06B010BD000000040040AD
:101F2000EC00002030B589B0002407941C216846DD
:101F30000894FEF783F921481F49214D0160532180
:101F4000C0E90114696940F27122514341F28732BC
:101F500002EB4111C0E903148461FFF730FC17481C
:101F6000FFF720FD079407A914480894FFF782FAA9
:101F70000094686944F620614843CDE901040022D9
:101F800069460E480494FFF7EFFB6020009008229A
:101F900069460A48FFF79EFC45F6D81001900220DA
:101FA00002900C2269460548FFF794FC0348FFF7AE
:101FB0009FFB09B030BD0000000C00402C01002048
:101FC00000000020FEE7704770477047FEF762BED2
:101FD00070B598B030216846FEF730F914210CA88E
:101FE000FEF72CF9142111A8FEF728F91D48002549
:101FF000016841F080510160006800F08050169047
:102000001948016821F4404141F400410160006831
:10201000012600F4404016903004CDE9006002240F
:102020008001CDE906400C2008905420CDE9090438
:1020300004200B906846FFF75BF80CA90F2081E89D
:102040003100E002CDE90F0502210CA8FEF764FF84
:10205000082011908DF8546011A8FEF7B5FE18B055
:1020600070BD000040380240007000400548016823
:1020700041F47001016003494FF00060803908604D
:102080007047000088ED00E02DE9F05F414A1168DB
:102090000869DFF804A1C043C307DFF80091404E90
:1020A000404FDFF80481414C4FF080400DD009696A
:1020B0009346C943C9066AD4216889B321680229B5
:1020C00030D02068042858D05CE040F2EE228263D1
:1020D00096234363026440F28F65C56241F21005A6
:1020E0008561344D3248286000202060CAF8002005
:1020F000C9F8003030603860801E08610421404615
:10210000FEF7B6FD04214046FEF7B2FD042140462D
:10211000FEF7AEFD4046BDE8F05F0421FEF7A8BD26
:10212000012028E0016C244D2960416A503181630F
:10213000816B416342F22001816104214046FEF738
:1021400097FD04214046FEF793FD2968DAF8000068
:10215000081A316801443160184908602968D9F8C3
:102160000000081A16490860396808443860286871
:10217000144908600320206004E000222021124856
:10218000FEF77DFDDBF800006FF010010161BDE896
:10219000F09F0000AC000020080000200C00002090
:1021A0000000002004000020000402401000002075
:1021B000D921000844000020380000203C00002005
:1021C000400000203000002000000240014800686C
:1021D00000470000440000202DE9F05FDFF81CA15B
:1021E000DAF800402069DFF818B1C043454B464F8C
:1021F000464DC0064FF080423AD4DBF81000454906
:102200005FEAC068424840F2726C40F21A4642F2FD
:10221000200911D5C2F838C05663C2F818901E685C
:10222000D0F800C0A6F272667642B6B26644066086
:102230003868A0F21A4010E09663C2F834C0C2F8C1
:1022400018901E68D0F800C0A6F21A467642B6B2C0
:10225000664406603868A0F2726040420E6880B240
:10226000304408602868401E28606FF0100020612C
:10227000DAF8000054460069C043C0073BD1296822
:102280009620254D4FF48066012912DC9063234986
:1022900051634FF48151916120496439D1622149E0
:1022A0001F4F0F6018604FF4AF701064002048603B
:1022B00015E0DBF8101041F2100C5FEAC16840F243
:1022C000EE2106D590635163C2F818C018603960DA
:1022D00005E091635063C2F818C019603860314658
:1022E0002846FEF7C5FC31462846FEF7C1FC2168AA
:1022F0006FF001000861BDE8F09F0000AC00002015
:1023000000000240080000200C0000202C000020EB
:102310000000002004000020000402407367060053
:10232000892000084400002070B516480068016943
:102330004FF00102C943CB0713491DD00369DB43AA
:102340001B071DD46FF0080303610020C1E90120C1
:102350000E4D940221462846FEF78AFC2146284667
:10236000FEF786FC21462846FEF782FC21462846D9
:10237000BDE87040FEF77CBC6FF0010303618A602A
:1023800070BD00002C010020440000200004024029
:10239000F0B502681D4B1E4C9F031E4D1E4E984209
:1023A00007D0B84205D0A04203D0A84201D0B04225
:1023B00004D122F0700C4A6842EA0C02984210D014
:1023C000B8420ED0A0420CD0A8420AD0B04208D0E9
:1023D000124CA04205D0124CA04202D0114CA04297
:1023E00003D122F44074CA6822434C6922F080026F
:1023F000224302608A68C2620A688262984201D1FE
:102400000969016301214161F0BD00000000014044
:102410000004004000080040000C00400040014063
:10242000004401400048014010B501F01F030121A4
:10243000046A99408C430462016A9A401143016224
:1024400010BD000030B5026A22F001020262026A89
:102450004368846924F073050C682C4322F002055C
:102460008A682A430A4DA8420BD122F00805CA689F
:1024700023F440732A434D6922F004021D438B6903
:102480002B434360846149684163026230BD0000B0
:102490000000014030B5026A22F010020262026AB6
:1024A000436884690D6824F4E64444EA05248D6891
:1024B00022F0200242EA05120B4DA8420ED1CD684F
:1024C00022F0800242EA05124D6923F4406343EA98
:1024D00085038D6922F0400243EA850343608461ED
:1024E00049688163026230BD0000014030B5026A74
:1024F00022F480720262036A4268C46923F40073A2
:1025000024F073050C682C438D6843EA05230C4DB9
:10251000A8420ED1CD6823F4006343EA05234D6938
:1025200022F4405242EA05128D6923F4806342EAA4
:1025300005124260C4614968C163036230BD000096
:102540000000014030B5026A22F480520262046A3F
:102550004268C3690D6823F4E64343EA05238D68A6
:1025600024F4005444EA0534064DA84204D14D69D0
:1025700022F4804242EA85124260C36149680164E4
:10258000046230BD0000014070B5046A24F001040B
:1025900004628469056A124EB0420ED0B0F1804FD9
:1025A0000BD0104EB04208D00F4EB04205D00F4EA7
:1025B000B04202D00E4EB04203D124F003041443C3
:1025C00001E044F001041A0724F0F00444EA126226
:1025D00025F00A0301F00A0119438261016270BD0E
:1025E000000001400004004000080040000C0040D2
:1025F0000040014030B5046A24F01004046284698C
:10260000056A24F4407444EA022222F470444FF62E
:10261000FF7202EA03322243A02425F0A00304EA59
:10262000011119438261016230BD10B5806B002138
:10263000C185C184FFF7EEF910BD0168CA6822F4B4
:102640009072CA6001684A6922F001024A61202141
:1026500080F83A10704710B590F83A10222901D04E
:10266000022010BD8168B1F5805F11D00169002999
:1026700001681FD0496801F07F03816A4A1C8262A9
:102680000B70C18D491E0904090CC18518D02BE0BF
:102690000269816A002A0268526805D0D2B20A80B3
:1026A000816A491C8162ECE7C2F308020A80816AF0
:1026B000891CF7E74A68816A4B1C83620A70E0E76D
:1026C0000168CA6822F02002CA600168CA6822F460
:1026D0008072CA6001684A6922F001024A612021C1
:1026E00080F83A10FFF7AEFA002010BD2DE9F04156
:1026F000044600680169E26821F440511143016118
:102700002169A068E26908436169114308432168AF
:10271000CA6849F20C639A430243CA60206841695F
:10272000A26921F4407111434161E06919276425D0
:102730003226B0F5004F354A354920684FF0000881
:1027400006D0884201D0904236D1FEF78FFC35E0AA
:10275000884201D0904202D1FEF788FC01E0FEF7EA
:1027600075FC61684A18A0FB070148EB0803FDF7F8
:102770002DFD0146B0FBF5F00201B1FBF5F06FF065
:102780001803584301EB800006EBC000B0FBF5F0E6
:1027900000F0F80002EB4002B1FBF5F0584301EB0A
:1027A000800006EBC000B0FBF5F000F007002168E8
:1027B00010448860BDE8F081FEF748FC61688B0F2B
:1027C0008A00A0FB0701FDF701FD0146B0FBF5F013
:1027D0006FF01802504301EB800006EB0010B0FBD5
:1027E000F5F000F0F002B1FBF5F002EB0012B1FBE6
:1027F000F5F06FF01803584301EB800006EB001072
:10280000B0FBF5F000F00F00D1E70000001401402C
:102810000010014090F83910212901D002207047A2
:102820008168B1F5805F016A0BD04A1C02620268C0
:1028300009785160C18C491E0904090CC1840ED06D
:1028400017E009880268C1F3080151600169002995
:10285000016A02D0491C0162ECE7891CFBE70168B0
:10286000CA6822F08002CA600068C16841F0400175
:10287000C160002070472DE9F041984617460E468A
:102880000446069D1DE0681C1BD02DB1FEF7FCF927
:10289000A0EB0800A84214D92068C16821F4D071C7
:1028A000C1602068416921F001014161202084F864
:1028B000390084F83A00002084F838000320BDE88D
:1028C000F0812068006836EA000004D00020B84299
:1028D000D9D00020F3E70120F9E700000148FFF715
:1028E0009BB800006C010020FEE700000FB4054B10
:1028F00010B503A9044A029800F028F810BC5DF84E
:1029000014FB0000612B0008600000200907090E7D
:10291000002804DB00F1E02080F80014704700F08C
:102920000F0000F1E02080F8141D704702E008C895
:10293000121F08C1002AFAD170477047002001E039
:1029400001C1121F002AFBD1704700002DE9FF4F83
:1029500089B09B460446002506E025280BD05A4640
:102960000B999047641C6D1C20780028F5D10DB0A0
:102970002846BDE8F08F0027B8460122474900E00D
:10298000074314F8013F203B02FA03F00842F7D155
:1029900020782E2819D114F8010F47F004072A28AF
:1029A0000ED06FF02F022078A0F1300109290CD849
:1029B00008EB880102EB410100EB0108641CF2E71F
:1029C0000A98641C50F8048B0A9020780028CED016
:1029D000642808D0692806D075281ED05A460B995D
:1029E00090476D1C58E00A994FF00A0901C90A91F5
:1029F000002802DA40422D2102E0390504D52B21BE
:102A00008DF82010012103E0F90704D02021F7E719
:102A10008A4608AE0DE00021FAE70A994FF00A094C
:102A200001C90A91F7E74946FDF713FC303106F872
:102A3000011D0028F7D1ADEB060000F12009780751
:102A400001D44FF00108C84502DDA8EB090000E001
:102A500000208046002706E008A85A46C05D0B9972
:102A600090476D1C7F1C5745F6DB04E030205A462A
:102A70000B9990476D1CB8F10001A8F10108F5DC35
:102A800005E016F8010B5A460B9990476D1CB9F1F9
:102A90000001A9F10109F4DC641C65E709280100C3
:102AA00010B58CB01C216846FDF7C8FB142107A89F
:102AB000FDF7C4FB08200024CDE907040220CDE97E
:102AC000094007A90A48FEF709F80A480294CDE927
:102AD00000400C22694608480494FEF745FE06486B
:102AE00001220C210068FFF79FFC0CB010BD000014
:102AF000000002409F680600AC00002010B586B0C0
:102B0000002414216846FDF799FB0820009002205C
:102B1000CDE9010403900120049069460E48FDF7B9
:102B2000DDFF0E4801680A6A22F480520A620168D9
:102B3000CA690B6A22F4734242F4807423F420427F
:102B400042F40052CC6101680A62006801220C2143
:102B5000FFF76AFC06B010BD00000240AC00002088
:102B600013B54FF6FF73012269460248FFF76BF871
:102B700000981CBD6C01002008B5A4484FF0000B64
:102B8000A149C0E9081B5C4641694FF47A72514380
:102B90004163416BC162C0F830B0C0F828B05E46F6
:102BA0005D46DA465F464FF00A09FEF77BF8FFF70D
:102BB0000FFA98499648086097480460FFF7CEF8E6
:102BC0009648016841F4800101600068002200F429
:102BD0008000009011463820FEF7C4F83820FEF738
:102BE000B3F8002211463A20FEF7BCF83A20FEF76F
:102BF000ABF885488A49403801604FF4E131C0E9BB
:102C000001140C21C460C0E904418461C461FEF771
:102C10008DFFFFF71BF9FFF785F9FFF751F9FFF774
:102C200071F8FFF73DFF002220217E48FEF727F8CC
:102C30007D4C00224FF400512046FEF720F8002280
:102C40004FF400412046FEF71AF800224FF480416D
:102C50002046FEF714F81C20FEF776F87348FEF7BE
:102C600047FC08217148FEF7B9FE7048FEF752FC98
:102C70000C216E48FEF7F8FD00216C48FEF7D8FDE8
:102C800004216A48FEF7D4FD3220FEF75DF85E4865
:102C90008038FEF72DFC5C488038FEF73BFC5A4834
:102CA00008218038FEF7E0FD61A0FFF71FFEDFF886
:102CB0005C81D8F81000012824D0D8F8100003282F
:102CC000F5D10420C8F81000012220215548FDF755
:102CD000D6FFD8F82400D8F82800002874D04A4835
:102CE000C8F820004FEA0B00C8F82800C8F824B044
:102CF000D8F83400C8F82C00B9F1000F69D0A9F158
:102D00000109D4E74C4C20688007FCD44FF0804187
:102D1000486A64308863886B6430486342F210000C
:102D20008861D8F80020C6464046C8F81820D8F870
:102D30000420C8F81C208A6BD8F80830D31AD8F8B9
:102D40002420D8F8208008EB420C521C4262ACF8D8
:102D50000030426A08EB4208521C4262A8F800B0F8
:102D600002681A4402604A6BC26020688007FCD582
:102D700088460846496A3C31816341F2100181610D
:102D8000816BCEF808100221CEF81010FFF7B6FEC6
:102D900020688007FCD4D8F8240044465030C8F896
:102DA0003800D8F83800C8F8340042F22000C8F8DB
:102DB0001800FFF775FE21482064012220211948E0
:102DC000FDF75DFF73E7FFE71D48C8F8200001200D
:102DD0008AE7D8F83010D8F800008A440644D8F8BA
:102DE00004007F1C0544C82F8BD1A81B00902B46E4
:102DF0003246514613A0FFF779FD4FF0000A5646C0
:102E00005546574653E70000AC0100200000002063
:102E1000D92100084400002048000020303802403A
:102E2000001001400000024000080240AC000020F9
:102E300068656C6C6F0A0000100402409041060047
:102E4000AC21002025752025752025752025750AC3
:102E5000000000000006101600061016000000001A
:102E6000000000000102030406070809000000003A
:102E700001020304942E00080000002064000000FA
:102E80002C290008F82E0008640000200C460000E1
:102E90003C290008000000000000000000000000C5
:102EA000000000000000000005000000000000001D
:102EB0000000000000000000000000000000000012
:102EC0000000000000000000000000000000000002
:102ED00000000000000000000000000000000000F2
:102EE00000000000010000001000000000000000D1
:082EF0000024F40000000000C2
:040000050800019559
:00000001FF
